{
  "address": "0xa2E745aea22e21d8C520b86EE66785d1F9464002",
  "abi": [
    {
      "inputs": [
        {
          "internalType": "address",
          "name": "_uniswapRouter",
          "type": "address"
        },
        {
          "internalType": "address",
          "name": "_uniswapFactory",
          "type": "address"
        }
      ],
      "stateMutability": "nonpayable",
      "type": "constructor"
    },
    {
      "anonymous": false,
      "inputs": [
        {
          "indexed": true,
          "internalType": "address",
          "name": "collector",
          "type": "address"
        },
        {
          "indexed": false,
          "internalType": "uint256",
          "name": "feeAmount",
          "type": "uint256"
        }
      ],
      "name": "FeesCollected",
      "type": "event"
    },
    {
      "anonymous": false,
      "inputs": [
        {
          "indexed": true,
          "internalType": "address",
          "name": "previousOwner",
          "type": "address"
        },
        {
          "indexed": true,
          "internalType": "address",
          "name": "newOwner",
          "type": "address"
        }
      ],
      "name": "OwnershipTransferred",
      "type": "event"
    },
    {
      "anonymous": false,
      "inputs": [
        {
          "indexed": true,
          "internalType": "address",
          "name": "user",
          "type": "address"
        },
        {
          "indexed": true,
          "internalType": "address",
          "name": "fromToken",
          "type": "address"
        },
        {
          "indexed": true,
          "internalType": "address",
          "name": "toToken",
          "type": "address"
        },
        {
          "indexed": false,
          "internalType": "uint256",
          "name": "inputAmount",
          "type": "uint256"
        },
        {
          "indexed": false,
          "internalType": "uint256",
          "name": "outputAmount",
          "type": "uint256"
        },
        {
          "indexed": false,
          "internalType": "uint256",
          "name": "gasCost",
          "type": "uint256"
        },
        {
          "indexed": false,
          "internalType": "uint256",
          "name": "slippage",
          "type": "uint256"
        }
      ],
      "name": "TokensSwapped",
      "type": "event"
    },
    {
      "inputs": [],
      "name": "BPS_DIVISOR",
      "outputs": [
        {
          "internalType": "uint256",
          "name": "",
          "type": "uint256"
        }
      ],
      "stateMutability": "view",
      "type": "function"
    },
    {
      "inputs": [
        {
          "internalType": "address",
          "name": "fromToken",
          "type": "address"
        },
        {
          "internalType": "address",
          "name": "toToken",
          "type": "address"
        },
        {
          "internalType": "uint256",
          "name": "amount",
          "type": "uint256"
        },
        {
          "internalType": "address",
          "name": "recipient",
          "type": "address"
        }
      ],
      "name": "batchSwapToSingleToken",
      "outputs": [],
      "stateMutability": "nonpayable",
      "type": "function"
    },
    {
      "inputs": [
        {
          "internalType": "address[]",
          "name": "inputTokens",
          "type": "address[]"
        },
        {
          "internalType": "uint256[]",
          "name": "inputAmounts",
          "type": "uint256[]"
        },
        {
          "internalType": "address",
          "name": "outputToken",
          "type": "address"
        },
        {
          "internalType": "address",
          "name": "recipient",
          "type": "address"
        },
        {
          "internalType": "uint256",
          "name": "slippageTolerance",
          "type": "uint256"
        }
      ],
      "name": "batchSwapsToSingleToken",
      "outputs": [],
      "stateMutability": "nonpayable",
      "type": "function"
    },
    {
      "inputs": [
        {
          "internalType": "address",
          "name": "fromToken",
          "type": "address"
        },
        {
          "internalType": "address",
          "name": "toToken",
          "type": "address"
        },
        {
          "internalType": "uint256",
          "name": "inputAmount",
          "type": "uint256"
        }
      ],
      "name": "estimateSwapOutput",
      "outputs": [
        {
          "internalType": "uint256[]",
          "name": "",
          "type": "uint256[]"
        }
      ],
      "stateMutability": "view",
      "type": "function"
    },
    {
      "inputs": [
        {
          "internalType": "address[]",
          "name": "inputTokens",
          "type": "address[]"
        },
        {
          "internalType": "uint256[]",
          "name": "inputAmounts",
          "type": "uint256[]"
        },
        {
          "internalType": "address",
          "name": "outputToken",
          "type": "address"
        }
      ],
      "name": "estimateSwapOutputs",
      "outputs": [
        {
          "internalType": "uint256[]",
          "name": "outputAmounts",
          "type": "uint256[]"
        }
      ],
      "stateMutability": "view",
      "type": "function"
    },
    {
      "inputs": [],
      "name": "feeBasisPoints",
      "outputs": [
        {
          "internalType": "uint256",
          "name": "",
          "type": "uint256"
        }
      ],
      "stateMutability": "view",
      "type": "function"
    },
    {
      "inputs": [],
      "name": "owner",
      "outputs": [
        {
          "internalType": "address",
          "name": "",
          "type": "address"
        }
      ],
      "stateMutability": "view",
      "type": "function"
    },
    {
      "inputs": [],
      "name": "quickswapRouter",
      "outputs": [
        {
          "internalType": "contract IUniswapV2Router",
          "name": "",
          "type": "address"
        }
      ],
      "stateMutability": "view",
      "type": "function"
    },
    {
      "inputs": [],
      "name": "renounceOwnership",
      "outputs": [],
      "stateMutability": "nonpayable",
      "type": "function"
    },
    {
      "inputs": [
        {
          "internalType": "uint256",
          "name": "newFeeBPS",
          "type": "uint256"
        }
      ],
      "name": "setFeeBasisPoints",
      "outputs": [],
      "stateMutability": "nonpayable",
      "type": "function"
    },
    {
      "inputs": [
        {
          "internalType": "address",
          "name": "newOwner",
          "type": "address"
        }
      ],
      "name": "transferOwnership",
      "outputs": [],
      "stateMutability": "nonpayable",
      "type": "function"
    },
    {
      "inputs": [],
      "name": "uniswapFactory",
      "outputs": [
        {
          "internalType": "contract IUniswapV2Factory",
          "name": "",
          "type": "address"
        }
      ],
      "stateMutability": "view",
      "type": "function"
    }
  ],
  "transactionHash": "0x923702d34c0de3628daa1fc12b48f7a23990ea109fd71a50007d3cf03e4591d9",
  "args": [
    "0xa5E0829CaCEd8fFDD4De3c43696c57F7D7A678ff",
    "0x5757371414417b8C6CAad45bAeF941aBc7d3Ab32"
  ],
  "numDeployments": 1,
  "solcInputHash": "0856cb4de98772d511e015621a19e512",
  "bytecode": "0x60c060405260fa6002553480156200001657600080fd5b506040516200244138038062002441833981016040819052620000399162000184565b6001600055620000493362000115565b6001600160a01b038216620000a55760405162461bcd60e51b815260206004820152601960248201527f4552523a3a5a45524f5f414444524553533a3a524f555445520000000000000060448201526064015b60405180910390fd5b6001600160a01b038116620000fd5760405162461bcd60e51b815260206004820152601a60248201527f4552523a3a5a45524f5f414444524553533a3a464143544f525900000000000060448201526064016200009c565b6001600160a01b039182166080521660a052620001bc565b600180546001600160a01b038381166001600160a01b0319831681179093556040519116919082907f8be0079c531659141344cd1fd0a4f28419497f9722a3daafe3b4186f6b6457e090600090a35050565b80516001600160a01b03811681146200017f57600080fd5b919050565b600080604083850312156200019857600080fd5b620001a38362000167565b9150620001b36020840162000167565b90509250929050565b60805160a0516122276200021a6000396000818161013d01528181610b80015261113601526000818161017c01528181610322015281816106950152818161078301528181610a4301528181610b310152610dfa01526122276000f3fe608060405234801561001057600080fd5b50600436106100b45760003560e01c80638bdb2afa116100715780638bdb2afa146101385780638d87c4eb146101775780638da5cb5b1461019e578063b8606eef146101af578063c22d0263146101b8578063f2fde38b146101cb57600080fd5b80630165dd27146100b9578063191fe1ed146100ce5780632629f9ce146100ea57806353c7cdf71461010a578063550fce201461011d578063715018a614610130575b600080fd5b6100cc6100c7366004611ad7565b6101de565b005b6100d761271081565b6040519081526020015b60405180910390f35b6100fd6100f8366004611b61565b610239565b6040516100e19190611be5565b6100cc610118366004611cff565b610425565b6100fd61012b366004611dea565b610a1b565b6100cc610ac8565b61015f7f000000000000000000000000000000000000000000000000000000000000000081565b6040516001600160a01b0390911681526020016100e1565b61015f7f000000000000000000000000000000000000000000000000000000000000000081565b6001546001600160a01b031661015f565b6100d760025481565b6100cc6101c6366004611e2b565b610adc565b6100cc6101d9366004611e7e565b611036565b6101e66110af565b6127108111156102345760405162461bcd60e51b81526020600482015260146024820152734552523a3a494e56414c49445f4645455f42505360601b60448201526064015b60405180910390fd5b600255565b606084831461029a5760405162461bcd60e51b815260206004820152602760248201527f496e70757420617272617973206d757374206265206f66207468652073616d65604482015266040d8cadccee8d60cb1b606482015260840161022b565b8467ffffffffffffffff8111156102b3576102b3611c29565b6040519080825280602002602001820160405280156102dc578160200160208202803683370190505b50905060005b8581101561041b57600061031c88888481811061030157610301611ea2565b90506020020160208101906103169190611e7e565b85611109565b905060007f00000000000000000000000000000000000000000000000000000000000000006001600160a01b031663d06ca61f88888681811061036157610361611ea2565b90506020020135846040518363ffffffff1660e01b8152600401610386929190611efc565b600060405180830381865afa1580156103a3573d6000803e3d6000fd5b505050506040513d6000823e601f3d908101601f191682016040526103cb9190810190611f15565b9050806001815181106103e0576103e0611ea2565b60200260200101518484815181106103fa576103fa611ea2565b6020026020010181815250505050808061041390611fb1565b9150506102e2565b5095945050505050565b61042d6112ed565b6104576040518060400160405280600981526020016818d85b1b081a5b9a5d60ba1b815250611347565b83518551146104a15760405162461bcd60e51b8152602060048201526016602482015275092dce0eae840d8cadccee8d0e640dad2e6dac2e8c6d60531b604482015260640161022b565b60005b8551811015610a09576104f9604051806040016040528060118152602001705377617070696e6720746f6b656e20257360781b8152508783815181106104ec576104ec611ea2565b602002602001015161138a565b61053d60405180604001604052806009815260200168416d6f756e7420257360b81b81525086838151811061053057610530611ea2565b60200260200101516113d3565b600086828151811061055157610551611ea2565b60200260200101519050600086838151811061056f5761056f611ea2565b602090810291909101015190506105916001600160a01b038316333084611418565b6105c16040518060400160405280600e81526020016d5472616e7366657272656420257360901b815250826113d3565b6000612710600254836105d49190611fcc565b6105de9190611feb565b905060006105ec828461200d565b905061061d6040518060400160405280600d81526020016c46656520616d6f756e7420257360981b815250836113d3565b61064d6040518060400160405280600e81526020016d5377617020616d6f756e7420257360901b815250826113d3565b6106578483611483565b6106866040518060400160405280600e81526020016d1199595cc818dbdb1b1958dd195960921b815250611347565b6106ba6001600160a01b0385167f000000000000000000000000000000000000000000000000000000000000000083611505565b60408051600280825260608201835260009260208301908036833701905050905084816000815181106106ef576106ef611ea2565b60200260200101906001600160a01b031690816001600160a01b031681525050888160018151811061072357610723611ea2565b60200260200101906001600160a01b031690816001600160a01b031681525050610777604051806040016040528060118152602001705377617070696e6720257320746f20257360781b815250868b61161a565b60006001600160a01b037f0000000000000000000000000000000000000000000000000000000000000000166338ed17398483858d6107b7426002611fcc565b6040518663ffffffff1660e01b81526004016107d7959493929190612024565b6000604051808303816000875af11580156107f6573d6000803e3d6000fd5b505050506040513d6000823e601f3d908101601f1916820160405261081e9190810190611f15565b90506108536040518060400160405280601081526020016f5377617070656420257320746f20257360801b815250878c61161a565b604080518082018252601e81527f72656365697069656e742062616c616e63652061667465722073776170200000602082015290516370a0823160e01b81526001600160a01b038b811660048301526108fb9291908d16906370a0823190602401602060405180830381865afa1580156108d1573d6000803e3d6000fd5b505050506040513d601f19601f820116820180604052508101906108f59190612060565b8b611661565b6040516370a0823160e01b81526001600160a01b038a8116600483015261096f91908816906370a0823190602401602060405180830381865afa158015610946573d6000803e3d6000fd5b505050506040513d601f19601f8201168201806040525081019061096a9190612060565b6116a8565b896001600160a01b0316866001600160a01b0316336001600160a01b03167f9b0a249a3c195624de19de7ff6dee954b9ff72e8503f8e5164c74d462235bcde86856001815181106109c2576109c2611ea2565b60209081029190910181015160408051938452918301523a90820152606081018d905260800160405180910390a45050505050508080610a0190611fb1565b9150506104a4565b50610a146001600055565b5050505050565b60606000610a298585611109565b60405163d06ca61f60e01b81529091506001600160a01b037f0000000000000000000000000000000000000000000000000000000000000000169063d06ca61f90610a7a9086908590600401611efc565b600060405180830381865afa158015610a97573d6000803e3d6000fd5b505050506040513d6000823e601f3d908101601f19168201604052610abf9190810190611f15565b95945050505050565b610ad06110af565b610ada60006116ed565b565b610ae46112ed565b610b226040518060400160405280601e81526020017f63616c6c696e6720626174636853776170546f53696e676c65546f6b656e0000815250611347565b610b566001600160a01b0385167f000000000000000000000000000000000000000000000000000000000000000084611505565b60405163e6a4390560e01b81526001600160a01b03858116600483015284811660248301526000917f00000000000000000000000000000000000000000000000000000000000000009091169063e6a4390590604401602060405180830381865afa158015610bc9573d6000803e3d6000fd5b505050506040513d601f19601f82011682018060405250810190610bed9190612079565b9050610c1f6040518060400160405280600e81526020016d646972656374207061697220257360901b8152508261138a565b604080518082018252601b81527f72656365697069656e742062616c616e63653a3a4265666f72653a0000000000602082015290516370a0823160e01b81526001600160a01b038481166004830152606092610cca9290918816906370a08231906024015b602060405180830381865afa158015610ca1573d6000803e3d6000fd5b505050506040513d601f19601f82011682018060405250810190610cc59190612060565b6113d3565b604080518082018252601b81527f72656365697069656e742062616c616e63653a3a4265666f72653a0000000000602082015290516370a0823160e01b81526001600160a01b038581166004830152610d309291908916906370a0823190602401610c84565b610d456001600160a01b038716333087611418565b6001600160a01b03821615610de15760408051600280825260608201835290916020830190803683370190505090508581600081518110610d8857610d88611ea2565b60200260200101906001600160a01b031690816001600160a01b0316815250508481600181518110610dbc57610dbc611ea2565b60200260200101906001600160a01b031690816001600160a01b031681525050610dee565b610deb868661173f565b90505b60006001600160a01b037f0000000000000000000000000000000000000000000000000000000000000000166338ed173986838588610e2e426003611fcc565b6040518663ffffffff1660e01b8152600401610e4e959493929190612024565b6000604051808303816000875af1158015610e6d573d6000803e3d6000fd5b505050506040513d6000823e601f3d908101601f19168201604052610e959190810190611f15565b9050610eca6040518060400160405280601081526020016f5377617070656420257320746f20257360801b815250888861161a565b604080518082018252601a81527f72656365697069656e742062616c616e63653a3a41667465723a000000000000602082015290516370a0823160e01b81526001600160a01b038681166004830152610f309291908916906370a0823190602401610c84565b604080518082018252601a81527f72656365697069656e742062616c616e63653a3a41667465723a000000000000602082015290516370a0823160e01b81526001600160a01b038681166004830152610f969291908a16906370a0823190602401610c84565b856001600160a01b0316876001600160a01b0316336001600160a01b03167f9b0a249a3c195624de19de7ff6dee954b9ff72e8503f8e5164c74d462235bcde888560018751610fe5919061200d565b81518110610ff557610ff5611ea2565b60209081029190910181015160408051938452918301523a908201526000606082015260800160405180910390a45050506110306001600055565b50505050565b61103e6110af565b6001600160a01b0381166110a35760405162461bcd60e51b815260206004820152602660248201527f4f776e61626c653a206e6577206f776e657220697320746865207a65726f206160448201526564647265737360d01b606482015260840161022b565b6110ac816116ed565b50565b6001546001600160a01b03163314610ada5760405162461bcd60e51b815260206004820181905260248201527f4f776e61626c653a2063616c6c6572206973206e6f7420746865206f776e6572604482015260640161022b565b60405163e6a4390560e01b81526001600160a01b03838116600483015282811660248301526060916000917f0000000000000000000000000000000000000000000000000000000000000000169063e6a4390590604401602060405180830381865afa15801561117d573d6000803e3d6000fd5b505050506040513d601f19601f820116820180604052508101906111a19190612079565b90506001600160a01b0381161561123c5760408051600280825260608201835260009260208301908036833701905050905084816000815181106111e7576111e7611ea2565b60200260200101906001600160a01b031690816001600160a01b031681525050838160018151811061121b5761121b611ea2565b6001600160a01b039092166020928302919091019091015291506112e79050565b6040805160038082526080820190925260009160208201606080368337019050509050848160008151811061127357611273611ea2565b6001600160a01b0390921660209283029190910190910152733c499c542cef5e3811e1192ce70d8cc03d5c3359816001815181106112b3576112b3611ea2565b60200260200101906001600160a01b031690816001600160a01b031681525050838160028151811061121b5761121b611ea2565b92915050565b600260005414156113405760405162461bcd60e51b815260206004820152601f60248201527f5265656e7472616e637947756172643a207265656e7472616e742063616c6c00604482015260640161022b565b6002600055565b6110ac8160405160240161135b91906120ee565b60408051601f198184030181529190526020810180516001600160e01b031663104c13eb60e21b17905261181b565b6113cf82826040516024016113a0929190612101565b60408051601f198184030181529190526020810180516001600160e01b031663319af33360e01b17905261181b565b5050565b6113cf82826040516024016113e992919061212b565b60408051601f198184030181529190526020810180516001600160e01b0316632d839cb360e21b17905261181b565b6040516001600160a01b03808516602483015283166044820152606481018290526110309085906323b872dd60e01b906084015b60408051601f198184030181529190526020810180516001600160e01b03166001600160e01b031990931692909217909152611824565b60006114976001546001600160a01b031690565b90506001600160a01b03811615611500576114bc6001600160a01b03841682846118f9565b806001600160a01b03167f9dc46f23cfb5ddcad0ae7ea2be38d47fec07bb9382ec7e564efc69e036dd66ce836040516114f791815260200190565b60405180910390a25b505050565b80158061157f5750604051636eb1769f60e11b81523060048201526001600160a01b03838116602483015284169063dd62ed3e90604401602060405180830381865afa158015611559573d6000803e3d6000fd5b505050506040513d601f19601f8201168201806040525081019061157d9190612060565b155b6115ea5760405162461bcd60e51b815260206004820152603660248201527f5361666545524332303a20617070726f76652066726f6d206e6f6e2d7a65726f60448201527520746f206e6f6e2d7a65726f20616c6c6f77616e636560501b606482015260840161022b565b6040516001600160a01b03831660248201526044810182905261150090849063095ea7b360e01b9060640161144c565b6115008383836040516024016116329392919061214d565b60408051601f198184030181529190526020810180516001600160e01b03166307e763af60e51b17905261181b565b61150083838360405160240161167993929190612180565b60408051601f198184030181529190526020810180516001600160e01b031663038fd88960e31b17905261181b565b6110ac816040516024016116be91815260200190565b60408051601f198184030181529190526020810180516001600160e01b031663f82c50f160e01b17905261181b565b600180546001600160a01b038381166001600160a01b0319831681179093556040519116919082907f8be0079c531659141344cd1fd0a4f28419497f9722a3daafe3b4186f6b6457e090600090a35050565b60408051600380825260808201909252606091600091906020820184803683370190505090506000733c499c542cef5e3811e1192ce70d8cc03d5c33599050848260008151811061179257611792611ea2565b60200260200101906001600160a01b031690816001600160a01b03168152505080826001815181106117c6576117c6611ea2565b60200260200101906001600160a01b031690816001600160a01b03168152505083826002815181106117fa576117fa611ea2565b6001600160a01b039092166020928302919091019091015250905092915050565b6110ac81611929565b6000611879826040518060400160405280602081526020017f5361666545524332303a206c6f772d6c6576656c2063616c6c206661696c6564815250856001600160a01b031661194a9092919063ffffffff16565b905080516000148061189a57508080602001905181019061189a91906121b3565b6115005760405162461bcd60e51b815260206004820152602a60248201527f5361666545524332303a204552433230206f7065726174696f6e20646964206e6044820152691bdd081cdd58d8d9595960b21b606482015260840161022b565b6040516001600160a01b03831660248201526044810182905261150090849063a9059cbb60e01b9060640161144c565b60006a636f6e736f6c652e6c6f679050600080835160208501845afa505050565b60606119598484600085611961565b949350505050565b6060824710156119c25760405162461bcd60e51b815260206004820152602660248201527f416464726573733a20696e73756666696369656e742062616c616e636520666f6044820152651c8818d85b1b60d21b606482015260840161022b565b600080866001600160a01b031685876040516119de91906121d5565b60006040518083038185875af1925050503d8060008114611a1b576040519150601f19603f3d011682016040523d82523d6000602084013e611a20565b606091505b5091509150611a3187838387611a3c565b979650505050505050565b60608315611aa8578251611aa1576001600160a01b0385163b611aa15760405162461bcd60e51b815260206004820152601d60248201527f416464726573733a2063616c6c20746f206e6f6e2d636f6e7472616374000000604482015260640161022b565b5081611959565b6119598383815115611abd5781518083602001fd5b8060405162461bcd60e51b815260040161022b91906120ee565b600060208284031215611ae957600080fd5b5035919050565b60008083601f840112611b0257600080fd5b50813567ffffffffffffffff811115611b1a57600080fd5b6020830191508360208260051b8501011115611b3557600080fd5b9250929050565b6001600160a01b03811681146110ac57600080fd5b8035611b5c81611b3c565b919050565b600080600080600060608688031215611b7957600080fd5b853567ffffffffffffffff80821115611b9157600080fd5b611b9d89838a01611af0565b90975095506020880135915080821115611bb657600080fd5b50611bc388828901611af0565b9094509250506040860135611bd781611b3c565b809150509295509295909350565b6020808252825182820181905260009190848201906040850190845b81811015611c1d57835183529284019291840191600101611c01565b50909695505050505050565b634e487b7160e01b600052604160045260246000fd5b604051601f8201601f1916810167ffffffffffffffff81118282101715611c6857611c68611c29565b604052919050565b600067ffffffffffffffff821115611c8a57611c8a611c29565b5060051b60200190565b600082601f830112611ca557600080fd5b81356020611cba611cb583611c70565b611c3f565b82815260059290921b84018101918181019086841115611cd957600080fd5b8286015b84811015611cf45780358352918301918301611cdd565b509695505050505050565b600080600080600060a08688031215611d1757600080fd5b853567ffffffffffffffff80821115611d2f57600080fd5b818801915088601f830112611d4357600080fd5b81356020611d53611cb583611c70565b82815260059290921b8401810191818101908c841115611d7257600080fd5b948201945b83861015611d99578535611d8a81611b3c565b82529482019490820190611d77565b99505089013592505080821115611daf57600080fd5b50611dbc88828901611c94565b945050611dcb60408701611b51565b9250611dd960608701611b51565b949793965091946080013592915050565b600080600060608486031215611dff57600080fd5b8335611e0a81611b3c565b92506020840135611e1a81611b3c565b929592945050506040919091013590565b60008060008060808587031215611e4157600080fd5b8435611e4c81611b3c565b93506020850135611e5c81611b3c565b9250604085013591506060850135611e7381611b3c565b939692955090935050565b600060208284031215611e9057600080fd5b8135611e9b81611b3c565b9392505050565b634e487b7160e01b600052603260045260246000fd5b600081518084526020808501945080840160005b83811015611ef15781516001600160a01b031687529582019590820190600101611ecc565b509495945050505050565b8281526040602082015260006119596040830184611eb8565b60006020808385031215611f2857600080fd5b825167ffffffffffffffff811115611f3f57600080fd5b8301601f81018513611f5057600080fd5b8051611f5e611cb582611c70565b81815260059190911b82018301908381019087831115611f7d57600080fd5b928401925b82841015611a3157835182529284019290840190611f82565b634e487b7160e01b600052601160045260246000fd5b6000600019821415611fc557611fc5611f9b565b5060010190565b6000816000190483118215151615611fe657611fe6611f9b565b500290565b60008261200857634e487b7160e01b600052601260045260246000fd5b500490565b60008282101561201f5761201f611f9b565b500390565b85815284602082015260a06040820152600061204360a0830186611eb8565b6001600160a01b0394909416606083015250608001529392505050565b60006020828403121561207257600080fd5b5051919050565b60006020828403121561208b57600080fd5b8151611e9b81611b3c565b60005b838110156120b1578181015183820152602001612099565b838111156110305750506000910152565b600081518084526120da816020860160208601612096565b601f01601f19169290920160200192915050565b602081526000611e9b60208301846120c2565b60408152600061211460408301856120c2565b905060018060a01b03831660208301529392505050565b60408152600061213e60408301856120c2565b90508260208301529392505050565b60608152600061216060608301866120c2565b6001600160a01b0394851660208401529290931660409091015292915050565b60608152600061219360608301866120c2565b6020830194909452506001600160a01b0391909116604090910152919050565b6000602082840312156121c557600080fd5b81518015158114611e9b57600080fd5b600082516121e7818460208701612096565b919091019291505056fea2646970667358221220ecfa4553f9c4c33508ef58ddb662490df8842954a3a1b464f04bbd5d88b2de7a64736f6c634300080a0033",
  "devdoc": {
    "kind": "dev",
    "methods": {
      "owner()": {
        "details": "Returns the address of the current owner."
      },
      "renounceOwnership()": {
        "details": "Leaves the contract without owner. It will not be possible to call `onlyOwner` functions. Can only be called by the current owner. NOTE: Renouncing ownership will leave the contract without an owner, thereby disabling any functionality that is only available to the owner."
      },
      "transferOwnership(address)": {
        "details": "Transfers ownership of the contract to a new account (`newOwner`). Can only be called by the current owner."
      }
    },
    "version": 1
  },
  "userdoc": {
    "kind": "user",
    "methods": {},
    "version": 1
  },
  "storageLayout": {
    "storage": [
      {
        "astId": 512,
        "contract": "contracts/facets/MultiBatchSwapFacet.sol:MultiBatchSwapFacet",
        "label": "_status",
        "offset": 0,
        "slot": "0",
        "type": "t_uint256"
      },
      {
        "astId": 396,
        "contract": "contracts/facets/MultiBatchSwapFacet.sol:MultiBatchSwapFacet",
        "label": "_owner",
        "offset": 0,
        "slot": "1",
        "type": "t_address"
      },
      {
        "astId": 3888,
        "contract": "contracts/facets/MultiBatchSwapFacet.sol:MultiBatchSwapFacet",
        "label": "feeBasisPoints",
        "offset": 0,
        "slot": "2",
        "type": "t_uint256"
      }
    ],
    "types": {
      "t_address": {
        "encoding": "inplace",
        "label": "address",
        "numberOfBytes": "20"
      },
      "t_uint256": {
        "encoding": "inplace",
        "label": "uint256",
        "numberOfBytes": "32"
      }
    }
  }
}