{
  "address": "0x5029124bf296FDeA7799a135b2F242471e74AFe2",
  "abi": [
    {
      "inputs": [
        {
          "internalType": "address",
          "name": "_uniswapRouter",
          "type": "address"
        },
        {
          "internalType": "address",
          "name": "_uniswapFactory",
          "type": "address"
        }
      ],
      "stateMutability": "nonpayable",
      "type": "constructor"
    },
    {
      "anonymous": false,
      "inputs": [
        {
          "indexed": true,
          "internalType": "address",
          "name": "collector",
          "type": "address"
        },
        {
          "indexed": false,
          "internalType": "uint256",
          "name": "feeAmount",
          "type": "uint256"
        }
      ],
      "name": "FeesCollected",
      "type": "event"
    },
    {
      "anonymous": false,
      "inputs": [
        {
          "indexed": true,
          "internalType": "address",
          "name": "previousOwner",
          "type": "address"
        },
        {
          "indexed": true,
          "internalType": "address",
          "name": "newOwner",
          "type": "address"
        }
      ],
      "name": "OwnershipTransferred",
      "type": "event"
    },
    {
      "anonymous": false,
      "inputs": [
        {
          "indexed": true,
          "internalType": "address",
          "name": "user",
          "type": "address"
        },
        {
          "indexed": true,
          "internalType": "address",
          "name": "fromToken",
          "type": "address"
        },
        {
          "indexed": true,
          "internalType": "address",
          "name": "toToken",
          "type": "address"
        },
        {
          "indexed": false,
          "internalType": "uint256",
          "name": "inputAmount",
          "type": "uint256"
        },
        {
          "indexed": false,
          "internalType": "uint256",
          "name": "outputAmount",
          "type": "uint256"
        },
        {
          "indexed": false,
          "internalType": "uint256",
          "name": "gasCost",
          "type": "uint256"
        },
        {
          "indexed": false,
          "internalType": "uint256",
          "name": "slippage",
          "type": "uint256"
        }
      ],
      "name": "TokensSwapped",
      "type": "event"
    },
    {
      "inputs": [],
      "name": "BPS_DIVISOR",
      "outputs": [
        {
          "internalType": "uint256",
          "name": "",
          "type": "uint256"
        }
      ],
      "stateMutability": "view",
      "type": "function"
    },
    {
      "inputs": [
        {
          "internalType": "address",
          "name": "fromToken",
          "type": "address"
        },
        {
          "internalType": "address",
          "name": "toToken",
          "type": "address"
        },
        {
          "internalType": "uint256",
          "name": "amount",
          "type": "uint256"
        },
        {
          "internalType": "address",
          "name": "recipient",
          "type": "address"
        }
      ],
      "name": "batchSwapToSingleToken",
      "outputs": [],
      "stateMutability": "nonpayable",
      "type": "function"
    },
    {
      "inputs": [
        {
          "internalType": "address[]",
          "name": "inputTokens",
          "type": "address[]"
        },
        {
          "internalType": "uint256[]",
          "name": "inputAmounts",
          "type": "uint256[]"
        },
        {
          "internalType": "address",
          "name": "outputToken",
          "type": "address"
        },
        {
          "internalType": "address",
          "name": "recipient",
          "type": "address"
        },
        {
          "internalType": "uint256",
          "name": "slippageTolerance",
          "type": "uint256"
        }
      ],
      "name": "batchSwapsToSingleToken",
      "outputs": [],
      "stateMutability": "nonpayable",
      "type": "function"
    },
    {
      "inputs": [
        {
          "internalType": "address",
          "name": "fromToken",
          "type": "address"
        },
        {
          "internalType": "address",
          "name": "toToken",
          "type": "address"
        },
        {
          "internalType": "uint256",
          "name": "inputAmount",
          "type": "uint256"
        }
      ],
      "name": "estimateSwapOutput",
      "outputs": [
        {
          "internalType": "uint256[]",
          "name": "",
          "type": "uint256[]"
        }
      ],
      "stateMutability": "view",
      "type": "function"
    },
    {
      "inputs": [
        {
          "internalType": "address[]",
          "name": "inputTokens",
          "type": "address[]"
        },
        {
          "internalType": "uint256[]",
          "name": "inputAmounts",
          "type": "uint256[]"
        },
        {
          "internalType": "address",
          "name": "outputToken",
          "type": "address"
        }
      ],
      "name": "estimateSwapOutputs",
      "outputs": [
        {
          "internalType": "uint256",
          "name": "outputAmount",
          "type": "uint256"
        }
      ],
      "stateMutability": "view",
      "type": "function"
    },
    {
      "inputs": [],
      "name": "feeBasisPoints",
      "outputs": [
        {
          "internalType": "uint256",
          "name": "",
          "type": "uint256"
        }
      ],
      "stateMutability": "view",
      "type": "function"
    },
    {
      "inputs": [],
      "name": "owner",
      "outputs": [
        {
          "internalType": "address",
          "name": "",
          "type": "address"
        }
      ],
      "stateMutability": "view",
      "type": "function"
    },
    {
      "inputs": [],
      "name": "quickswapRouter",
      "outputs": [
        {
          "internalType": "contract IUniswapV2Router",
          "name": "",
          "type": "address"
        }
      ],
      "stateMutability": "view",
      "type": "function"
    },
    {
      "inputs": [],
      "name": "renounceOwnership",
      "outputs": [],
      "stateMutability": "nonpayable",
      "type": "function"
    },
    {
      "inputs": [
        {
          "internalType": "uint256",
          "name": "newFeeBPS",
          "type": "uint256"
        }
      ],
      "name": "setFeeBasisPoints",
      "outputs": [],
      "stateMutability": "nonpayable",
      "type": "function"
    },
    {
      "inputs": [
        {
          "internalType": "address",
          "name": "newOwner",
          "type": "address"
        }
      ],
      "name": "transferOwnership",
      "outputs": [],
      "stateMutability": "nonpayable",
      "type": "function"
    },
    {
      "inputs": [],
      "name": "uniswapFactory",
      "outputs": [
        {
          "internalType": "contract IUniswapV2Factory",
          "name": "",
          "type": "address"
        }
      ],
      "stateMutability": "view",
      "type": "function"
    }
  ],
  "transactionHash": "0x2bc809efa94224d1f59128fda447079e8b0efc573e6b580dc86cf9981780ffdb",
  "args": [
    "0xa5E0829CaCEd8fFDD4De3c43696c57F7D7A678ff",
    "0x5757371414417b8C6CAad45bAeF941aBc7d3Ab32"
  ],
  "numDeployments": 1,
  "solcInputHash": "d5d8632e06ccb2547739c199756fe31b",
  "bytecode": "0x60c060405260fa6002553480156200001657600080fd5b506040516200240538038062002405833981016040819052620000399162000184565b6001600055620000493362000115565b6001600160a01b038216620000a55760405162461bcd60e51b815260206004820152601960248201527f4552523a3a5a45524f5f414444524553533a3a524f555445520000000000000060448201526064015b60405180910390fd5b6001600160a01b038116620000fd5760405162461bcd60e51b815260206004820152601a60248201527f4552523a3a5a45524f5f414444524553533a3a464143544f525900000000000060448201526064016200009c565b6001600160a01b039182166080521660a052620001bc565b600180546001600160a01b038381166001600160a01b0319831681179093556040519116919082907f8be0079c531659141344cd1fd0a4f28419497f9722a3daafe3b4186f6b6457e090600090a35050565b80516001600160a01b03811681146200017f57600080fd5b919050565b600080604083850312156200019857600080fd5b620001a38362000167565b9150620001b36020840162000167565b90509250929050565b60805160a0516121eb6200021a6000396000818161013d01528181610b2c01526110e201526000818161017c015281816102df015281816106410152818161072f015281816109ef01528181610add0152610da601526121eb6000f3fe608060405234801561001057600080fd5b50600436106100b45760003560e01c80638bdb2afa116100715780638bdb2afa146101385780638d87c4eb146101775780638da5cb5b1461019e578063b8606eef146101af578063c22d0263146101b8578063f2fde38b146101cb57600080fd5b80630165dd27146100b9578063191fe1ed146100ce5780632629f9ce146100ea57806353c7cdf7146100fd578063550fce2014610110578063715018a614610130575b600080fd5b6100cc6100c7366004611a83565b6101de565b005b6100d761271081565b6040519081526020015b60405180910390f35b6100d76100f8366004611b0d565b610239565b6100cc61010b366004611c67565b6103d1565b61012361011e366004611d52565b6109c7565b6040516100e19190611d93565b6100cc610a74565b61015f7f000000000000000000000000000000000000000000000000000000000000000081565b6040516001600160a01b0390911681526020016100e1565b61015f7f000000000000000000000000000000000000000000000000000000000000000081565b6001546001600160a01b031661015f565b6100d760025481565b6100cc6101c6366004611dd7565b610a88565b6100cc6101d9366004611e2a565b610fe2565b6101e661105b565b6127108111156102345760405162461bcd60e51b81526020600482015260146024820152734552523a3a494e56414c49445f4645455f42505360601b60448201526064015b60405180910390fd5b600255565b600084831461029a5760405162461bcd60e51b815260206004820152602760248201527f496e70757420617272617973206d757374206265206f66207468652073616d65604482015266040d8cadccee8d60cb1b606482015260840161022b565b506000805b858110156103c75760006102d98888848181106102be576102be611e4e565b90506020020160208101906102d39190611e2a565b856110b5565b905060007f00000000000000000000000000000000000000000000000000000000000000006001600160a01b031663d06ca61f88888681811061031e5761031e611e4e565b90506020020135846040518363ffffffff1660e01b8152600401610343929190611ea8565b600060405180830381865afa158015610360573d6000803e3d6000fd5b505050506040513d6000823e601f3d908101601f191682016040526103889190810190611ec1565b90508060018151811061039d5761039d611e4e565b6020026020010151846103b09190611f5d565b9350505080806103bf90611f75565b91505061029f565b5095945050505050565b6103d9611299565b6104036040518060400160405280600981526020016818d85b1b081a5b9a5d60ba1b8152506112f3565b835185511461044d5760405162461bcd60e51b8152602060048201526016602482015275092dce0eae840d8cadccee8d0e640dad2e6dac2e8c6d60531b604482015260640161022b565b60005b85518110156109b5576104a5604051806040016040528060118152602001705377617070696e6720746f6b656e20257360781b81525087838151811061049857610498611e4e565b6020026020010151611336565b6104e960405180604001604052806009815260200168416d6f756e7420257360b81b8152508683815181106104dc576104dc611e4e565b602002602001015161137f565b60008682815181106104fd576104fd611e4e565b60200260200101519050600086838151811061051b5761051b611e4e565b6020908102919091010151905061053d6001600160a01b0383163330846113c4565b61056d6040518060400160405280600e81526020016d5472616e7366657272656420257360901b8152508261137f565b6000612710600254836105809190611f90565b61058a9190611faf565b905060006105988284611fd1565b90506105c96040518060400160405280600d81526020016c46656520616d6f756e7420257360981b8152508361137f565b6105f96040518060400160405280600e81526020016d5377617020616d6f756e7420257360901b8152508261137f565b610603848361142f565b6106326040518060400160405280600e81526020016d1199595cc818dbdb1b1958dd195960921b8152506112f3565b6106666001600160a01b0385167f0000000000000000000000000000000000000000000000000000000000000000836114b1565b604080516002808252606082018352600092602083019080368337019050509050848160008151811061069b5761069b611e4e565b60200260200101906001600160a01b031690816001600160a01b03168152505088816001815181106106cf576106cf611e4e565b60200260200101906001600160a01b031690816001600160a01b031681525050610723604051806040016040528060118152602001705377617070696e6720257320746f20257360781b815250868b6115c6565b60006001600160a01b037f0000000000000000000000000000000000000000000000000000000000000000166338ed17398483858d610763426002611f90565b6040518663ffffffff1660e01b8152600401610783959493929190611fe8565b6000604051808303816000875af11580156107a2573d6000803e3d6000fd5b505050506040513d6000823e601f3d908101601f191682016040526107ca9190810190611ec1565b90506107ff6040518060400160405280601081526020016f5377617070656420257320746f20257360801b815250878c6115c6565b604080518082018252601e81527f72656365697069656e742062616c616e63652061667465722073776170200000602082015290516370a0823160e01b81526001600160a01b038b811660048301526108a79291908d16906370a0823190602401602060405180830381865afa15801561087d573d6000803e3d6000fd5b505050506040513d601f19601f820116820180604052508101906108a19190612024565b8b61160d565b6040516370a0823160e01b81526001600160a01b038a8116600483015261091b91908816906370a0823190602401602060405180830381865afa1580156108f2573d6000803e3d6000fd5b505050506040513d601f19601f820116820180604052508101906109169190612024565b611654565b896001600160a01b0316866001600160a01b0316336001600160a01b03167f9b0a249a3c195624de19de7ff6dee954b9ff72e8503f8e5164c74d462235bcde868560018151811061096e5761096e611e4e565b60209081029190910181015160408051938452918301523a90820152606081018d905260800160405180910390a450505050505080806109ad90611f75565b915050610450565b506109c06001600055565b5050505050565b606060006109d585856110b5565b60405163d06ca61f60e01b81529091506001600160a01b037f0000000000000000000000000000000000000000000000000000000000000000169063d06ca61f90610a269086908590600401611ea8565b600060405180830381865afa158015610a43573d6000803e3d6000fd5b505050506040513d6000823e601f3d908101601f19168201604052610a6b9190810190611ec1565b95945050505050565b610a7c61105b565b610a866000611699565b565b610a90611299565b610ace6040518060400160405280601e81526020017f63616c6c696e6720626174636853776170546f53696e676c65546f6b656e00008152506112f3565b610b026001600160a01b0385167f0000000000000000000000000000000000000000000000000000000000000000846114b1565b60405163e6a4390560e01b81526001600160a01b03858116600483015284811660248301526000917f00000000000000000000000000000000000000000000000000000000000000009091169063e6a4390590604401602060405180830381865afa158015610b75573d6000803e3d6000fd5b505050506040513d601f19601f82011682018060405250810190610b99919061203d565b9050610bcb6040518060400160405280600e81526020016d646972656374207061697220257360901b81525082611336565b604080518082018252601b81527f72656365697069656e742062616c616e63653a3a4265666f72653a0000000000602082015290516370a0823160e01b81526001600160a01b038481166004830152606092610c769290918816906370a08231906024015b602060405180830381865afa158015610c4d573d6000803e3d6000fd5b505050506040513d601f19601f82011682018060405250810190610c719190612024565b61137f565b604080518082018252601b81527f72656365697069656e742062616c616e63653a3a4265666f72653a0000000000602082015290516370a0823160e01b81526001600160a01b038581166004830152610cdc9291908916906370a0823190602401610c30565b610cf16001600160a01b0387163330876113c4565b6001600160a01b03821615610d8d5760408051600280825260608201835290916020830190803683370190505090508581600081518110610d3457610d34611e4e565b60200260200101906001600160a01b031690816001600160a01b0316815250508481600181518110610d6857610d68611e4e565b60200260200101906001600160a01b031690816001600160a01b031681525050610d9a565b610d9786866116eb565b90505b60006001600160a01b037f0000000000000000000000000000000000000000000000000000000000000000166338ed173986838588610dda426003611f90565b6040518663ffffffff1660e01b8152600401610dfa959493929190611fe8565b6000604051808303816000875af1158015610e19573d6000803e3d6000fd5b505050506040513d6000823e601f3d908101601f19168201604052610e419190810190611ec1565b9050610e766040518060400160405280601081526020016f5377617070656420257320746f20257360801b81525088886115c6565b604080518082018252601a81527f72656365697069656e742062616c616e63653a3a41667465723a000000000000602082015290516370a0823160e01b81526001600160a01b038681166004830152610edc9291908916906370a0823190602401610c30565b604080518082018252601a81527f72656365697069656e742062616c616e63653a3a41667465723a000000000000602082015290516370a0823160e01b81526001600160a01b038681166004830152610f429291908a16906370a0823190602401610c30565b856001600160a01b0316876001600160a01b0316336001600160a01b03167f9b0a249a3c195624de19de7ff6dee954b9ff72e8503f8e5164c74d462235bcde888560018751610f919190611fd1565b81518110610fa157610fa1611e4e565b60209081029190910181015160408051938452918301523a908201526000606082015260800160405180910390a4505050610fdc6001600055565b50505050565b610fea61105b565b6001600160a01b03811661104f5760405162461bcd60e51b815260206004820152602660248201527f4f776e61626c653a206e6577206f776e657220697320746865207a65726f206160448201526564647265737360d01b606482015260840161022b565b61105881611699565b50565b6001546001600160a01b03163314610a865760405162461bcd60e51b815260206004820181905260248201527f4f776e61626c653a2063616c6c6572206973206e6f7420746865206f776e6572604482015260640161022b565b60405163e6a4390560e01b81526001600160a01b03838116600483015282811660248301526060916000917f0000000000000000000000000000000000000000000000000000000000000000169063e6a4390590604401602060405180830381865afa158015611129573d6000803e3d6000fd5b505050506040513d601f19601f8201168201806040525081019061114d919061203d565b90506001600160a01b038116156111e857604080516002808252606082018352600092602083019080368337019050509050848160008151811061119357611193611e4e565b60200260200101906001600160a01b031690816001600160a01b03168152505083816001815181106111c7576111c7611e4e565b6001600160a01b039092166020928302919091019091015291506112939050565b6040805160038082526080820190925260009160208201606080368337019050509050848160008151811061121f5761121f611e4e565b6001600160a01b0390921660209283029190910190910152733c499c542cef5e3811e1192ce70d8cc03d5c33598160018151811061125f5761125f611e4e565b60200260200101906001600160a01b031690816001600160a01b03168152505083816002815181106111c7576111c7611e4e565b92915050565b600260005414156112ec5760405162461bcd60e51b815260206004820152601f60248201527f5265656e7472616e637947756172643a207265656e7472616e742063616c6c00604482015260640161022b565b6002600055565b6110588160405160240161130791906120b2565b60408051601f198184030181529190526020810180516001600160e01b031663104c13eb60e21b1790526117c7565b61137b828260405160240161134c9291906120c5565b60408051601f198184030181529190526020810180516001600160e01b031663319af33360e01b1790526117c7565b5050565b61137b82826040516024016113959291906120ef565b60408051601f198184030181529190526020810180516001600160e01b0316632d839cb360e21b1790526117c7565b6040516001600160a01b0380851660248301528316604482015260648101829052610fdc9085906323b872dd60e01b906084015b60408051601f198184030181529190526020810180516001600160e01b03166001600160e01b0319909316929092179091526117d0565b60006114436001546001600160a01b031690565b90506001600160a01b038116156114ac576114686001600160a01b03841682846118a5565b806001600160a01b03167f9dc46f23cfb5ddcad0ae7ea2be38d47fec07bb9382ec7e564efc69e036dd66ce836040516114a391815260200190565b60405180910390a25b505050565b80158061152b5750604051636eb1769f60e11b81523060048201526001600160a01b03838116602483015284169063dd62ed3e90604401602060405180830381865afa158015611505573d6000803e3d6000fd5b505050506040513d601f19601f820116820180604052508101906115299190612024565b155b6115965760405162461bcd60e51b815260206004820152603660248201527f5361666545524332303a20617070726f76652066726f6d206e6f6e2d7a65726f60448201527520746f206e6f6e2d7a65726f20616c6c6f77616e636560501b606482015260840161022b565b6040516001600160a01b0383166024820152604481018290526114ac90849063095ea7b360e01b906064016113f8565b6114ac8383836040516024016115de93929190612111565b60408051601f198184030181529190526020810180516001600160e01b03166307e763af60e51b1790526117c7565b6114ac83838360405160240161162593929190612144565b60408051601f198184030181529190526020810180516001600160e01b031663038fd88960e31b1790526117c7565b6110588160405160240161166a91815260200190565b60408051601f198184030181529190526020810180516001600160e01b031663f82c50f160e01b1790526117c7565b600180546001600160a01b038381166001600160a01b0319831681179093556040519116919082907f8be0079c531659141344cd1fd0a4f28419497f9722a3daafe3b4186f6b6457e090600090a35050565b60408051600380825260808201909252606091600091906020820184803683370190505090506000733c499c542cef5e3811e1192ce70d8cc03d5c33599050848260008151811061173e5761173e611e4e565b60200260200101906001600160a01b031690816001600160a01b031681525050808260018151811061177257611772611e4e565b60200260200101906001600160a01b031690816001600160a01b03168152505083826002815181106117a6576117a6611e4e565b6001600160a01b039092166020928302919091019091015250905092915050565b611058816118d5565b6000611825826040518060400160405280602081526020017f5361666545524332303a206c6f772d6c6576656c2063616c6c206661696c6564815250856001600160a01b03166118f69092919063ffffffff16565b90508051600014806118465750808060200190518101906118469190612177565b6114ac5760405162461bcd60e51b815260206004820152602a60248201527f5361666545524332303a204552433230206f7065726174696f6e20646964206e6044820152691bdd081cdd58d8d9595960b21b606482015260840161022b565b6040516001600160a01b0383166024820152604481018290526114ac90849063a9059cbb60e01b906064016113f8565b60006a636f6e736f6c652e6c6f679050600080835160208501845afa505050565b6060611905848460008561190d565b949350505050565b60608247101561196e5760405162461bcd60e51b815260206004820152602660248201527f416464726573733a20696e73756666696369656e742062616c616e636520666f6044820152651c8818d85b1b60d21b606482015260840161022b565b600080866001600160a01b0316858760405161198a9190612199565b60006040518083038185875af1925050503d80600081146119c7576040519150601f19603f3d011682016040523d82523d6000602084013e6119cc565b606091505b50915091506119dd878383876119e8565b979650505050505050565b60608315611a54578251611a4d576001600160a01b0385163b611a4d5760405162461bcd60e51b815260206004820152601d60248201527f416464726573733a2063616c6c20746f206e6f6e2d636f6e7472616374000000604482015260640161022b565b5081611905565b6119058383815115611a695781518083602001fd5b8060405162461bcd60e51b815260040161022b91906120b2565b600060208284031215611a9557600080fd5b5035919050565b60008083601f840112611aae57600080fd5b50813567ffffffffffffffff811115611ac657600080fd5b6020830191508360208260051b8501011115611ae157600080fd5b9250929050565b6001600160a01b038116811461105857600080fd5b8035611b0881611ae8565b919050565b600080600080600060608688031215611b2557600080fd5b853567ffffffffffffffff80821115611b3d57600080fd5b611b4989838a01611a9c565b90975095506020880135915080821115611b6257600080fd5b50611b6f88828901611a9c565b9094509250506040860135611b8381611ae8565b809150509295509295909350565b634e487b7160e01b600052604160045260246000fd5b604051601f8201601f1916810167ffffffffffffffff81118282101715611bd057611bd0611b91565b604052919050565b600067ffffffffffffffff821115611bf257611bf2611b91565b5060051b60200190565b600082601f830112611c0d57600080fd5b81356020611c22611c1d83611bd8565b611ba7565b82815260059290921b84018101918181019086841115611c4157600080fd5b8286015b84811015611c5c5780358352918301918301611c45565b509695505050505050565b600080600080600060a08688031215611c7f57600080fd5b853567ffffffffffffffff80821115611c9757600080fd5b818801915088601f830112611cab57600080fd5b81356020611cbb611c1d83611bd8565b82815260059290921b8401810191818101908c841115611cda57600080fd5b948201945b83861015611d01578535611cf281611ae8565b82529482019490820190611cdf565b99505089013592505080821115611d1757600080fd5b50611d2488828901611bfc565b945050611d3360408701611afd565b9250611d4160608701611afd565b949793965091946080013592915050565b600080600060608486031215611d6757600080fd5b8335611d7281611ae8565b92506020840135611d8281611ae8565b929592945050506040919091013590565b6020808252825182820181905260009190848201906040850190845b81811015611dcb57835183529284019291840191600101611daf565b50909695505050505050565b60008060008060808587031215611ded57600080fd5b8435611df881611ae8565b93506020850135611e0881611ae8565b9250604085013591506060850135611e1f81611ae8565b939692955090935050565b600060208284031215611e3c57600080fd5b8135611e4781611ae8565b9392505050565b634e487b7160e01b600052603260045260246000fd5b600081518084526020808501945080840160005b83811015611e9d5781516001600160a01b031687529582019590820190600101611e78565b509495945050505050565b8281526040602082015260006119056040830184611e64565b60006020808385031215611ed457600080fd5b825167ffffffffffffffff811115611eeb57600080fd5b8301601f81018513611efc57600080fd5b8051611f0a611c1d82611bd8565b81815260059190911b82018301908381019087831115611f2957600080fd5b928401925b828410156119dd57835182529284019290840190611f2e565b634e487b7160e01b600052601160045260246000fd5b60008219821115611f7057611f70611f47565b500190565b6000600019821415611f8957611f89611f47565b5060010190565b6000816000190483118215151615611faa57611faa611f47565b500290565b600082611fcc57634e487b7160e01b600052601260045260246000fd5b500490565b600082821015611fe357611fe3611f47565b500390565b85815284602082015260a06040820152600061200760a0830186611e64565b6001600160a01b0394909416606083015250608001529392505050565b60006020828403121561203657600080fd5b5051919050565b60006020828403121561204f57600080fd5b8151611e4781611ae8565b60005b8381101561207557818101518382015260200161205d565b83811115610fdc5750506000910152565b6000815180845261209e81602086016020860161205a565b601f01601f19169290920160200192915050565b602081526000611e476020830184612086565b6040815260006120d86040830185612086565b905060018060a01b03831660208301529392505050565b6040815260006121026040830185612086565b90508260208301529392505050565b6060815260006121246060830186612086565b6001600160a01b0394851660208401529290931660409091015292915050565b6060815260006121576060830186612086565b6020830194909452506001600160a01b0391909116604090910152919050565b60006020828403121561218957600080fd5b81518015158114611e4757600080fd5b600082516121ab81846020870161205a565b919091019291505056fea26469706673582212202427527e766ce2df25f3fee0f15357771de55a5d44138156186145ca88e58ae764736f6c634300080a0033",
  "devdoc": {
    "kind": "dev",
    "methods": {
      "owner()": {
        "details": "Returns the address of the current owner."
      },
      "renounceOwnership()": {
        "details": "Leaves the contract without owner. It will not be possible to call `onlyOwner` functions. Can only be called by the current owner. NOTE: Renouncing ownership will leave the contract without an owner, thereby disabling any functionality that is only available to the owner."
      },
      "transferOwnership(address)": {
        "details": "Transfers ownership of the contract to a new account (`newOwner`). Can only be called by the current owner."
      }
    },
    "version": 1
  },
  "userdoc": {
    "kind": "user",
    "methods": {},
    "version": 1
  },
  "storageLayout": {
    "storage": [
      {
        "astId": 512,
        "contract": "contracts/facets/MultiBatchSwapFacet.sol:MultiBatchSwapFacet",
        "label": "_status",
        "offset": 0,
        "slot": "0",
        "type": "t_uint256"
      },
      {
        "astId": 396,
        "contract": "contracts/facets/MultiBatchSwapFacet.sol:MultiBatchSwapFacet",
        "label": "_owner",
        "offset": 0,
        "slot": "1",
        "type": "t_address"
      },
      {
        "astId": 3888,
        "contract": "contracts/facets/MultiBatchSwapFacet.sol:MultiBatchSwapFacet",
        "label": "feeBasisPoints",
        "offset": 0,
        "slot": "2",
        "type": "t_uint256"
      }
    ],
    "types": {
      "t_address": {
        "encoding": "inplace",
        "label": "address",
        "numberOfBytes": "20"
      },
      "t_uint256": {
        "encoding": "inplace",
        "label": "uint256",
        "numberOfBytes": "32"
      }
    }
  }
}