{
  "_format": "hh-sol-artifact-1",
  "contractName": "DiamondCutFacet",
  "sourceName": "contracts/DiamondCutFacet.sol",
  "abi": [
    {
      "anonymous": false,
      "inputs": [
        {
          "components": [
            {
              "internalType": "address",
              "name": "facetAddress",
              "type": "address"
            },
            {
              "internalType": "enum IDiamondCut.FacetCutAction",
              "name": "action",
              "type": "uint8"
            },
            {
              "internalType": "bytes4[]",
              "name": "functionSelectors",
              "type": "bytes4[]"
            }
          ],
          "indexed": false,
          "internalType": "struct IDiamondCut.FacetCut[]",
          "name": "_facetCuts",
          "type": "tuple[]"
        },
        {
          "indexed": false,
          "internalType": "address",
          "name": "_init",
          "type": "address"
        },
        {
          "indexed": false,
          "internalType": "bytes",
          "name": "_calldata",
          "type": "bytes"
        }
      ],
      "name": "DiamondCut",
      "type": "event"
    },
    {
      "anonymous": false,
      "inputs": [
        {
          "indexed": true,
          "internalType": "bytes4",
          "name": "selector",
          "type": "bytes4"
        }
      ],
      "name": "FacetRemoved",
      "type": "event"
    },
    {
      "anonymous": false,
      "inputs": [
        {
          "indexed": true,
          "internalType": "address",
          "name": "facetAddress",
          "type": "address"
        },
        {
          "indexed": true,
          "internalType": "bytes4",
          "name": "selector",
          "type": "bytes4"
        }
      ],
      "name": "FacetUpdated",
      "type": "event"
    },
    {
      "anonymous": false,
      "inputs": [
        {
          "indexed": true,
          "internalType": "bytes32",
          "name": "role",
          "type": "bytes32"
        },
        {
          "indexed": true,
          "internalType": "bytes32",
          "name": "previousAdminRole",
          "type": "bytes32"
        },
        {
          "indexed": true,
          "internalType": "bytes32",
          "name": "newAdminRole",
          "type": "bytes32"
        }
      ],
      "name": "RoleAdminChanged",
      "type": "event"
    },
    {
      "anonymous": false,
      "inputs": [
        {
          "indexed": true,
          "internalType": "bytes32",
          "name": "role",
          "type": "bytes32"
        },
        {
          "indexed": true,
          "internalType": "address",
          "name": "account",
          "type": "address"
        },
        {
          "indexed": true,
          "internalType": "address",
          "name": "sender",
          "type": "address"
        }
      ],
      "name": "RoleGranted",
      "type": "event"
    },
    {
      "anonymous": false,
      "inputs": [
        {
          "indexed": true,
          "internalType": "bytes32",
          "name": "role",
          "type": "bytes32"
        },
        {
          "indexed": true,
          "internalType": "address",
          "name": "account",
          "type": "address"
        },
        {
          "indexed": true,
          "internalType": "address",
          "name": "sender",
          "type": "address"
        }
      ],
      "name": "RoleRevoked",
      "type": "event"
    },
    {
      "inputs": [],
      "name": "DEFAULT_ADMIN_ROLE",
      "outputs": [
        {
          "internalType": "bytes32",
          "name": "",
          "type": "bytes32"
        }
      ],
      "stateMutability": "view",
      "type": "function"
    },
    {
      "inputs": [],
      "name": "UPGRADE_ADMIN_ROLE",
      "outputs": [
        {
          "internalType": "bytes32",
          "name": "",
          "type": "bytes32"
        }
      ],
      "stateMutability": "view",
      "type": "function"
    },
    {
      "inputs": [
        {
          "internalType": "address",
          "name": "newAdmin",
          "type": "address"
        }
      ],
      "name": "addUpgradeAdmin",
      "outputs": [],
      "stateMutability": "nonpayable",
      "type": "function"
    },
    {
      "inputs": [
        {
          "components": [
            {
              "internalType": "address",
              "name": "facetAddress",
              "type": "address"
            },
            {
              "internalType": "enum IDiamondCut.FacetCutAction",
              "name": "action",
              "type": "uint8"
            },
            {
              "internalType": "bytes4[]",
              "name": "functionSelectors",
              "type": "bytes4[]"
            }
          ],
          "internalType": "struct IDiamondCut.FacetCut[]",
          "name": "_facetCuts",
          "type": "tuple[]"
        },
        {
          "internalType": "address",
          "name": "_init",
          "type": "address"
        },
        {
          "internalType": "bytes",
          "name": "_calldata",
          "type": "bytes"
        }
      ],
      "name": "diamondCut",
      "outputs": [],
      "stateMutability": "nonpayable",
      "type": "function"
    },
    {
      "inputs": [
        {
          "internalType": "bytes4",
          "name": "selector",
          "type": "bytes4"
        }
      ],
      "name": "getFacetAddress",
      "outputs": [
        {
          "internalType": "address",
          "name": "",
          "type": "address"
        }
      ],
      "stateMutability": "view",
      "type": "function"
    },
    {
      "inputs": [
        {
          "internalType": "bytes32",
          "name": "role",
          "type": "bytes32"
        }
      ],
      "name": "getRoleAdmin",
      "outputs": [
        {
          "internalType": "bytes32",
          "name": "",
          "type": "bytes32"
        }
      ],
      "stateMutability": "view",
      "type": "function"
    },
    {
      "inputs": [
        {
          "internalType": "bytes32",
          "name": "role",
          "type": "bytes32"
        },
        {
          "internalType": "address",
          "name": "account",
          "type": "address"
        }
      ],
      "name": "grantRole",
      "outputs": [],
      "stateMutability": "nonpayable",
      "type": "function"
    },
    {
      "inputs": [
        {
          "internalType": "bytes32",
          "name": "role",
          "type": "bytes32"
        },
        {
          "internalType": "address",
          "name": "account",
          "type": "address"
        }
      ],
      "name": "hasRole",
      "outputs": [
        {
          "internalType": "bool",
          "name": "",
          "type": "bool"
        }
      ],
      "stateMutability": "view",
      "type": "function"
    },
    {
      "inputs": [
        {
          "internalType": "address",
          "name": "admin",
          "type": "address"
        }
      ],
      "name": "removeUpgradeAdmin",
      "outputs": [],
      "stateMutability": "nonpayable",
      "type": "function"
    },
    {
      "inputs": [
        {
          "internalType": "bytes32",
          "name": "role",
          "type": "bytes32"
        },
        {
          "internalType": "address",
          "name": "account",
          "type": "address"
        }
      ],
      "name": "renounceRole",
      "outputs": [],
      "stateMutability": "nonpayable",
      "type": "function"
    },
    {
      "inputs": [
        {
          "internalType": "bytes32",
          "name": "role",
          "type": "bytes32"
        },
        {
          "internalType": "address",
          "name": "account",
          "type": "address"
        }
      ],
      "name": "revokeRole",
      "outputs": [],
      "stateMutability": "nonpayable",
      "type": "function"
    },
    {
      "inputs": [
        {
          "internalType": "bytes4",
          "name": "interfaceId",
          "type": "bytes4"
        }
      ],
      "name": "supportsInterface",
      "outputs": [
        {
          "internalType": "bool",
          "name": "",
          "type": "bool"
        }
      ],
      "stateMutability": "view",
      "type": "function"
    }
  ],
  "bytecode": "0x608060405234801561001057600080fd5b5061001c60003361004b565b6100467ff5e41b69db3149675767a8769b58cb4060b90e5e3d4bab8b1c958708ed9c92593361004b565b6100f7565b6100558282610059565b5050565b6000828152602081815260408083206001600160a01b038516845290915290205460ff16610055576000828152602081815260408083206001600160a01b03851684529091529020805460ff191660011790556100b33390565b6001600160a01b0316816001600160a01b0316837f2f8788117e7eff1d82e926ec794901d17c78024a50270940304540a733656f0d60405160405180910390a45050565b610f16806101066000396000f3fe608060405234801561001057600080fd5b50600436106100b45760003560e01c80637a070c2d116100715780637a070c2d146101605780638ffc2120146101ca57806391d14854146101df578063a217fddf146101f2578063d547741f146101fa578063f5d10fb31461020d57600080fd5b806301ffc9a7146100b95780631d251645146100e15780631f931c1c146100f6578063248a9ca3146101095780632f2ff15d1461013a57806336568abe1461014d575b600080fd5b6100cc6100c7366004610aeb565b610220565b60405190151581526020015b60405180910390f35b6100f46100ef366004610b31565b610257565b005b6100f4610104366004610b95565b61027e565b61012c610117366004610c47565b60009081526020819052604090206001015490565b6040519081526020016100d8565b6100f4610148366004610c60565b6106d2565b6100f461015b366004610c60565b6106fc565b6101b261016e366004610aeb565b6001600160e01b03191660009081527fc8fcad8db84d3cc18b4c41d551ea0ee66dd599cde068d998e57d5e09332c131c60205260409020546001600160a01b031690565b6040516001600160a01b0390911681526020016100d8565b61012c600080516020610ec183398151915281565b6100cc6101ed366004610c60565b610776565b61012c600081565b6100f4610208366004610c60565b61079f565b6100f461021b366004610b31565b6107c4565b60006001600160e01b03198216637965db0b60e01b148061025157506301ffc9a760e01b6001600160e01b03198316145b92915050565b6000610262816107e7565b61027a600080516020610ec1833981519152836106d2565b5050565b610296600080516020610ec183398151915233610776565b61030d5760405162461bcd60e51b815260206004820152603b60248201527f4469616d6f6e64476f7665726e616e63653a206d75737420686176652075706760448201527f726164652061646d696e20726f6c6520746f20696e746572616374000000000060648201526084015b60405180910390fd5b7fc8fcad8db84d3cc18b4c41d551ea0ee66dd599cde068d998e57d5e09332c131c60005b8581101561061257600087878381811061034d5761034d610c8c565b905060200281019061035f9190610ca2565b610370906040810190602001610cc2565b9050600088888481811061038657610386610c8c565b90506020028101906103989190610ca2565b6103a6906020810190610b31565b905060005b8989858181106103bd576103bd610c8c565b90506020028101906103cf9190610ca2565b6103dd906040810190610ce3565b90508110156105fc5760008a8a868181106103fa576103fa610c8c565b905060200281019061040c9190610ca2565b61041a906040810190610ce3565b8381811061042a5761042a610c8c565b905060200201602081019061043f9190610aeb565b9050600084600281111561045557610455610d2d565b14156104c5576001600160e01b031981166000908152602087905260409020546001600160a01b03161561048e575050505050506106cb565b6001600160e01b03198116600090815260208790526040902080546001600160a01b0319166001600160a01b0385161790556105e9565b60018460028111156104d9576104d9610d2d565b1415610543576001600160e01b031981166000908152602087905260409020546001600160a01b031661048e5760405162461bcd60e51b815260206004820152601260248201527114d95b1958dd1bdc881b9bdd08199bdd5b9960721b6044820152606401610304565b600284600281111561055757610557610d2d565b14156105e9576001600160e01b031981166000908152602087905260409020546001600160a01b03166105c15760405162461bcd60e51b815260206004820152601260248201527114d95b1958dd1bdc881b9bdd08199bdd5b9960721b6044820152606401610304565b6001600160e01b03198116600090815260208790526040902080546001600160a01b03191690555b50806105f481610d59565b9150506103ab565b505050808061060a90610d59565b915050610331565b506001600160a01b038416156106c9576000846001600160a01b0316848460405161063e929190610d74565b600060405180830381855af49150503d8060008114610679576040519150601f19603f3d011682016040523d82523d6000602084013e61067e565b606091505b50509050806106c75760405162461bcd60e51b8152602060048201526015602482015274125b9a5d1a585b1a5e985d1a5bdb8819985a5b1959605a1b6044820152606401610304565b505b505b5050505050565b6000828152602081905260409020600101546106ed816107e7565b6106f783836107f4565b505050565b6001600160a01b038116331461076c5760405162461bcd60e51b815260206004820152602f60248201527f416363657373436f6e74726f6c3a2063616e206f6e6c792072656e6f756e636560448201526e103937b632b9903337b91039b2b63360891b6064820152608401610304565b61027a8282610878565b6000918252602082815260408084206001600160a01b0393909316845291905290205460ff1690565b6000828152602081905260409020600101546107ba816107e7565b6106f78383610878565b60006107cf816107e7565b61027a600080516020610ec18339815191528361079f565b6107f181336108dd565b50565b6107fe8282610776565b61027a576000828152602081815260408083206001600160a01b03851684529091529020805460ff191660011790556108343390565b6001600160a01b0316816001600160a01b0316837f2f8788117e7eff1d82e926ec794901d17c78024a50270940304540a733656f0d60405160405180910390a45050565b6108828282610776565b1561027a576000828152602081815260408083206001600160a01b0385168085529252808320805460ff1916905551339285917ff6391f5c32d9c69d2a47ea670b442974b53935d1edc7fd64eb21e047a839171b9190a45050565b6108e78282610776565b61027a576108f481610936565b6108ff836020610948565b604051602001610910929190610db4565b60408051601f198184030181529082905262461bcd60e51b825261030491600401610e29565b60606102516001600160a01b03831660145b60606000610957836002610e5c565b610962906002610e7b565b67ffffffffffffffff81111561097a5761097a610e93565b6040519080825280601f01601f1916602001820160405280156109a4576020820181803683370190505b509050600360fc1b816000815181106109bf576109bf610c8c565b60200101906001600160f81b031916908160001a905350600f60fb1b816001815181106109ee576109ee610c8c565b60200101906001600160f81b031916908160001a9053506000610a12846002610e5c565b610a1d906001610e7b565b90505b6001811115610a95576f181899199a1a9b1b9c1cb0b131b232b360811b85600f1660108110610a5157610a51610c8c565b1a60f81b828281518110610a6757610a67610c8c565b60200101906001600160f81b031916908160001a90535060049490941c93610a8e81610ea9565b9050610a20565b508315610ae45760405162461bcd60e51b815260206004820181905260248201527f537472696e67733a20686578206c656e67746820696e73756666696369656e746044820152606401610304565b9392505050565b600060208284031215610afd57600080fd5b81356001600160e01b031981168114610ae457600080fd5b80356001600160a01b0381168114610b2c57600080fd5b919050565b600060208284031215610b4357600080fd5b610ae482610b15565b60008083601f840112610b5e57600080fd5b50813567ffffffffffffffff811115610b7657600080fd5b602083019150836020828501011115610b8e57600080fd5b9250929050565b600080600080600060608688031215610bad57600080fd5b853567ffffffffffffffff80821115610bc557600080fd5b818801915088601f830112610bd957600080fd5b813581811115610be857600080fd5b8960208260051b8501011115610bfd57600080fd5b60208301975080965050610c1360208901610b15565b94506040880135915080821115610c2957600080fd5b50610c3688828901610b4c565b969995985093965092949392505050565b600060208284031215610c5957600080fd5b5035919050565b60008060408385031215610c7357600080fd5b82359150610c8360208401610b15565b90509250929050565b634e487b7160e01b600052603260045260246000fd5b60008235605e19833603018112610cb857600080fd5b9190910192915050565b600060208284031215610cd457600080fd5b813560038110610ae457600080fd5b6000808335601e19843603018112610cfa57600080fd5b83018035915067ffffffffffffffff821115610d1557600080fd5b6020019150600581901b3603821315610b8e57600080fd5b634e487b7160e01b600052602160045260246000fd5b634e487b7160e01b600052601160045260246000fd5b6000600019821415610d6d57610d6d610d43565b5060010190565b8183823760009101908152919050565b60005b83811015610d9f578181015183820152602001610d87565b83811115610dae576000848401525b50505050565b7f416363657373436f6e74726f6c3a206163636f756e7420000000000000000000815260008351610dec816017850160208801610d84565b7001034b99036b4b9b9b4b733903937b6329607d1b6017918401918201528351610e1d816028840160208801610d84565b01602801949350505050565b6020815260008251806020840152610e48816040850160208701610d84565b601f01601f19169190910160400192915050565b6000816000190483118215151615610e7657610e76610d43565b500290565b60008219821115610e8e57610e8e610d43565b500190565b634e487b7160e01b600052604160045260246000fd5b600081610eb857610eb8610d43565b50600019019056fef5e41b69db3149675767a8769b58cb4060b90e5e3d4bab8b1c958708ed9c9259a26469706673582212205ac366ad4306bd1235d69dcc72b31322222a8545b103d187fb8def312f97809364736f6c634300080a0033",
  "linkReferences": {},
  "deployedLinkReferences": {}
}