{
  "_format": "hh-sol-artifact-1",
  "contractName": "DiamondCutFacet",
  "sourceName": "contracts/DiamondCutFacet.sol",
  "abi": [
    {
      "inputs": [
        {
          "internalType": "address",
          "name": "_initializationContractAddress",
          "type": "address"
        },
        {
          "internalType": "bytes",
          "name": "_calldata",
          "type": "bytes"
        }
      ],
      "name": "InitializationFunctionReverted",
      "type": "error"
    },
    {
      "anonymous": false,
      "inputs": [
        {
          "components": [
            {
              "internalType": "address",
              "name": "facetAddress",
              "type": "address"
            },
            {
              "internalType": "enum IDiamondCut.FacetCutAction",
              "name": "action",
              "type": "uint8"
            },
            {
              "internalType": "bytes4[]",
              "name": "functionSelectors",
              "type": "bytes4[]"
            }
          ],
          "indexed": false,
          "internalType": "struct IDiamondCut.FacetCut[]",
          "name": "_facetCuts",
          "type": "tuple[]"
        },
        {
          "indexed": false,
          "internalType": "address",
          "name": "_init",
          "type": "address"
        },
        {
          "indexed": false,
          "internalType": "bytes",
          "name": "_calldata",
          "type": "bytes"
        }
      ],
      "name": "DiamondCut",
      "type": "event"
    },
    {
      "inputs": [
        {
          "components": [
            {
              "internalType": "address",
              "name": "facetAddress",
              "type": "address"
            },
            {
              "internalType": "enum IDiamondCut.FacetCutAction",
              "name": "action",
              "type": "uint8"
            },
            {
              "internalType": "bytes4[]",
              "name": "functionSelectors",
              "type": "bytes4[]"
            }
          ],
          "internalType": "struct IDiamondCut.FacetCut[]",
          "name": "_diamondCut",
          "type": "tuple[]"
        },
        {
          "internalType": "address",
          "name": "_init",
          "type": "address"
        },
        {
          "internalType": "bytes",
          "name": "_calldata",
          "type": "bytes"
        }
      ],
      "name": "diamondCut",
      "outputs": [],
      "stateMutability": "nonpayable",
      "type": "function"
    }
  ],
  "bytecode": "0x608060405234801561001057600080fd5b5061112a806100206000396000f3fe608060405234801561001057600080fd5b506004361061002b5760003560e01c80631f931c1c14610030575b600080fd5b61004361003e366004610c22565b610045565b005b61004d610271565b7fc8fcad8db84d3cc18b4c41d551ea0ee66dd599cde068d998e57d5e09332c131e547fc8fcad8db84d3cc18b4c41d551ea0ee66dd599cde068d998e57d5e09332c131c9061ffff8116908190600090600716156100bc5750600381901c60009081526001840160205260409020545b60005b888110156101a95761019c83838c8c858181106100de576100de610cd4565b90506020028101906100f09190610cea565b6100fe906020810190610d0a565b8d8d8681811061011057610110610cd4565b90506020028101906101229190610cea565b610133906040810190602001610d3b565b8e8e8781811061014557610145610cd4565b90506020028101906101579190610cea565b610165906040810190610d56565b808060200260200160405190810160405280939291908181526020018383602002808284376000920191909152506102ff92505050565b90935091506001016100bf565b508282146101c55760028401805461ffff191661ffff84161790555b60078216156101e757600382901c600090815260018501602052604090208190555b7f8faa70878671ccd212d20771b795c50af8fd3ff6cf27f4bde57e5d4de0aeb673898989898960405161021e959493929190610e2f565b60405180910390a16102668787878080601f016020809104026020016040519081016040528093929190818152602001838380828437600092019190915250610ad092505050565b505050505050505050565b7fc8fcad8db84d3cc18b4c41d551ea0ee66dd599cde068d998e57d5e09332c131c600401546001600160a01b031633146102fd5760405162461bcd60e51b815260206004820152602260248201527f4c69624469616d6f6e643a204d75737420626520636f6e7472616374206f776e60448201526132b960f11b60648201526084015b60405180910390fd5b565b600080807fc8fcad8db84d3cc18b4c41d551ea0ee66dd599cde068d998e57d5e09332c131c9050600084511161038b5760405162461bcd60e51b815260206004820152602b60248201527f4c69624469616d6f6e644375743a204e6f2073656c6563746f727320696e206660448201526a1858d95d081d1bc818dd5d60aa1b60648201526084016102f4565b600085600281111561039f5761039f610da0565b1415610506576103c78660405180606001604052806024815260200161108160249139610b9c565b60005b84518110156105005760008582815181106103e7576103e7610cd4565b6020908102919091018101516001600160e01b03198116600090815291859052604090912054909150606081901c156104805760405162461bcd60e51b815260206004820152603560248201527f4c69624469616d6f6e644375743a2043616e2774206164642066756e6374696f6044820152746e207468617420616c72656164792065786973747360581b60648201526084016102f4565b6001600160e01b031980831660008181526020879052604090206001600160601b031960608d901b168e17905560e060058e901b811692831c199c909c1690821c179a8114156104e45760038c901c600090815260018601602052604081209b909b555b8b6104ee81610f6e565b9c5050600190930192506103ca915050565b50610ac4565b600185600281111561051a5761051a610da0565b141561074257610542866040518060600160405280602881526020016110cd60289139610b9c565b60005b845181101561050057600085828151811061056257610562610cd4565b6020908102919091018101516001600160e01b03198116600090815291859052604090912054909150606081901c308114156105f85760405162461bcd60e51b815260206004820152602f60248201527f4c69624469616d6f6e644375743a2043616e2774207265706c61636520696d6d60448201526e3aba30b1363290333ab731ba34b7b760891b60648201526084016102f4565b896001600160a01b0316816001600160a01b031614156106805760405162461bcd60e51b815260206004820152603860248201527f4c69624469616d6f6e644375743a2043616e2774207265706c6163652066756e60448201527f6374696f6e20776974682073616d652066756e6374696f6e000000000000000060648201526084016102f4565b6001600160a01b0381166106fc5760405162461bcd60e51b815260206004820152603860248201527f4c69624469616d6f6e644375743a2043616e2774207265706c6163652066756e60448201527f6374696f6e207468617420646f65736e2774206578697374000000000000000060648201526084016102f4565b506001600160e01b031990911660009081526020849052604090206bffffffffffffffffffffffff919091166001600160601b031960608a901b16179055600101610545565b600285600281111561075657610756610da0565b1415610a6c576001600160a01b038616156107d25760405162461bcd60e51b815260206004820152603660248201527f4c69624469616d6f6e644375743a2052656d6f76652066616365742061646472604482015275657373206d757374206265206164647265737328302960501b60648201526084016102f4565b600388901c6007891660005b8651811015610a4c578961081657826107f681610f89565b60008181526001870160205260409020549b509350600792506108249050565b8161082081610f89565b9250505b6000806000808a858151811061083c5761083c610cd4565b6020908102919091018101516001600160e01b031981166000908152918a9052604090912054909150606081901c6108dc5760405162461bcd60e51b815260206004820152603760248201527f4c69624469616d6f6e644375743a2043616e27742072656d6f76652066756e6360448201527f74696f6e207468617420646f65736e277420657869737400000000000000000060648201526084016102f4565b606081901c3014156109475760405162461bcd60e51b815260206004820152602e60248201527f4c69624469616d6f6e644375743a2043616e27742072656d6f766520696d6d7560448201526d3a30b1363290333ab731ba34b7b760911b60648201526084016102f4565b600587901b8f901b94506001600160e01b03198086169083161461099d576001600160e01b03198516600090815260208a90526040902080546001600160601b0319166bffffffffffffffffffffffff83161790555b6001600160e01b031991909116600090815260208990526040812055600381901c611fff16925060051b60e0169050858214610a02576000828152600188016020526040902080546001600160e01b031980841c19909116908516831c179055610a26565b80836001600160e01b031916901c816001600160e01b031960001b901c198e16179c505b84610a4157600086815260018801602052604081208190559c505b5050506001016107de565b5080610a59836008610fa0565b610a639190610fbf565b99505050610ac4565b60405162461bcd60e51b815260206004820152602760248201527f4c69624469616d6f6e644375743a20496e636f727265637420466163657443756044820152663a20b1ba34b7b760c91b60648201526084016102f4565b50959694955050505050565b6001600160a01b038216610ae2575050565b610b04826040518060600160405280602881526020016110a560289139610b9c565b600080836001600160a01b031683604051610b1f9190611003565b600060405180830381855af49150503d8060008114610b5a576040519150601f19603f3d011682016040523d82523d6000602084013e610b5f565b606091505b509150915081610b9657805115610b795780518082602001fd5b838360405163192105d760e01b81526004016102f4929190611041565b50505050565b813b8181610b965760405162461bcd60e51b81526004016102f4919061106d565b80356001600160a01b0381168114610bd457600080fd5b919050565b60008083601f840112610beb57600080fd5b50813567ffffffffffffffff811115610c0357600080fd5b602083019150836020828501011115610c1b57600080fd5b9250929050565b600080600080600060608688031215610c3a57600080fd5b853567ffffffffffffffff80821115610c5257600080fd5b818801915088601f830112610c6657600080fd5b813581811115610c7557600080fd5b8960208260051b8501011115610c8a57600080fd5b60208301975080965050610ca060208901610bbd565b94506040880135915080821115610cb657600080fd5b50610cc388828901610bd9565b969995985093965092949392505050565b634e487b7160e01b600052603260045260246000fd5b60008235605e19833603018112610d0057600080fd5b9190910192915050565b600060208284031215610d1c57600080fd5b610d2582610bbd565b9392505050565b803560038110610bd457600080fd5b600060208284031215610d4d57600080fd5b610d2582610d2c565b6000808335601e19843603018112610d6d57600080fd5b83018035915067ffffffffffffffff821115610d8857600080fd5b6020019150600581901b3603821315610c1b57600080fd5b634e487b7160e01b600052602160045260246000fd5b818352600060208085019450826000805b86811015610dfa5782356001600160e01b03198116808214610de7578384fd5b8952509683019691830191600101610dc7565b50959695505050505050565b81835281816020850137506000828201602090810191909152601f909101601f19169091010190565b6060808252818101869052600090600560808085019089831b8601018a855b8b811015610f2557878303607f190184528135368e9003605e19018112610e7457600080fd5b8d016001600160a01b03610e8782610bbd565b1684526020610e97818301610d2c565b60038110610eb557634e487b7160e01b600052602160045260246000fd5b8582015260408281013536849003601e19018112610ed257600080fd5b8301803567ffffffffffffffff811115610eeb57600080fd5b808a1b3603851315610efc57600080fd5b8a83890152610f108b890182868501610db6565b98840198975050509301925050600101610e4e565b50506001600160a01b03891660208701528581036040870152610f4981888a610e06565b9b9a5050505050505050505050565b634e487b7160e01b600052601160045260246000fd5b6000600019821415610f8257610f82610f58565b5060010190565b600081610f9857610f98610f58565b506000190190565b6000816000190483118215151615610fba57610fba610f58565b500290565b60008219821115610fd257610fd2610f58565b500190565b60005b83811015610ff2578181015183820152602001610fda565b83811115610b965750506000910152565b60008251610d00818460208701610fd7565b6000815180845261102d816020860160208601610fd7565b601f01601f19169290920160200192915050565b6001600160a01b038316815260406020820181905260009061106590830184611015565b949350505050565b602081526000610d25602083018461101556fe4c69624469616d6f6e644375743a2041646420666163657420686173206e6f20636f64654c69624469616d6f6e644375743a205f696e6974206164647265737320686173206e6f20636f64654c69624469616d6f6e644375743a205265706c61636520666163657420686173206e6f20636f6465a264697066735822122073ae512aa0c17a7a916a112afa454a750d27e4082649078c904e3131c08e55be64736f6c634300080a0033",
  "linkReferences": {},
  "deployedLinkReferences": {}
}