{
  "_format": "hh-sol-artifact-1",
  "contractName": "TestFacet",
  "sourceName": "contracts/TFacet.sol",
  "abi": [
    {
      "inputs": [],
      "name": "testFunction",
      "outputs": [
        {
          "internalType": "string",
          "name": "",
          "type": "string"
        }
      ],
      "stateMutability": "pure",
      "type": "function"
    }
  ],
  "bytecode": "0x608060405234801561001057600080fd5b5060ed8061001f6000396000f3fe6080604052348015600f57600080fd5b506004361060285760003560e01c8063e16b4a9b14602d575b600080fd5b604080518082018252600f81526e48656c6c6f2c204469616d6f6e642160881b60208201529051605c91906065565b60405180910390f35b600060208083528351808285015260005b818110156090578581018301518582016040015282016076565b8181111560a1576000604083870101525b50601f01601f191692909201604001939250505056fea264697066735822122038c74ec0c8b2e486b5f91c5937d3555a67a5c70d8fc682133ce5d604f932c56164736f6c634300080a0033",
  "linkReferences": {},
  "deployedLinkReferences": {}
}