{
  "_format": "hh-sol-artifact-1",
  "contractName": "MultiBatchSwapFacet",
  "sourceName": "contracts/facets/MultiBatchSwapFacet.sol",
  "abi": [
    {
      "inputs": [],
      "stateMutability": "nonpayable",
      "type": "constructor"
    },
    {
      "anonymous": false,
      "inputs": [
        {
          "indexed": true,
          "internalType": "address",
          "name": "collector",
          "type": "address"
        },
        {
          "indexed": false,
          "internalType": "uint256",
          "name": "feeAmount",
          "type": "uint256"
        }
      ],
      "name": "FeesCollected",
      "type": "event"
    },
    {
      "inputs": [],
      "name": "BPS_DIVISOR",
      "outputs": [
        {
          "internalType": "uint256",
          "name": "",
          "type": "uint256"
        }
      ],
      "stateMutability": "view",
      "type": "function"
    },
    {
      "inputs": [
        {
          "internalType": "address",
          "name": "fromToken",
          "type": "address"
        },
        {
          "internalType": "address",
          "name": "toToken",
          "type": "address"
        },
        {
          "internalType": "uint256",
          "name": "amount",
          "type": "uint256"
        },
        {
          "internalType": "address",
          "name": "recipient",
          "type": "address"
        }
      ],
      "name": "batchSwapToSingleToken",
      "outputs": [
        {
          "internalType": "uint256",
          "name": "_amountGot",
          "type": "uint256"
        },
        {
          "internalType": "bool",
          "name": "isSuccess",
          "type": "bool"
        }
      ],
      "stateMutability": "nonpayable",
      "type": "function"
    },
    {
      "inputs": [
        {
          "internalType": "address[]",
          "name": "inputTokens",
          "type": "address[]"
        },
        {
          "internalType": "uint256[]",
          "name": "inputAmounts",
          "type": "uint256[]"
        },
        {
          "internalType": "address",
          "name": "outputToken",
          "type": "address"
        },
        {
          "internalType": "address",
          "name": "recipient",
          "type": "address"
        },
        {
          "internalType": "uint256",
          "name": "slippageTolerance",
          "type": "uint256"
        }
      ],
      "name": "batchSwapsToSingleToken",
      "outputs": [],
      "stateMutability": "nonpayable",
      "type": "function"
    },
    {
      "inputs": [
        {
          "internalType": "address",
          "name": "fromToken",
          "type": "address"
        },
        {
          "internalType": "address",
          "name": "toToken",
          "type": "address"
        },
        {
          "internalType": "uint256",
          "name": "inputAmount",
          "type": "uint256"
        }
      ],
      "name": "estimateSwapOutput",
      "outputs": [
        {
          "internalType": "uint256[]",
          "name": "",
          "type": "uint256[]"
        }
      ],
      "stateMutability": "nonpayable",
      "type": "function"
    },
    {
      "inputs": [
        {
          "internalType": "address[]",
          "name": "inputTokens",
          "type": "address[]"
        },
        {
          "internalType": "uint256[]",
          "name": "inputAmounts",
          "type": "uint256[]"
        },
        {
          "internalType": "address",
          "name": "outputToken",
          "type": "address"
        }
      ],
      "name": "estimateSwapOutputs",
      "outputs": [
        {
          "internalType": "uint256",
          "name": "outputAmount",
          "type": "uint256"
        }
      ],
      "stateMutability": "nonpayable",
      "type": "function"
    },
    {
      "inputs": [],
      "name": "feeBasisPoints",
      "outputs": [
        {
          "internalType": "uint256",
          "name": "",
          "type": "uint256"
        }
      ],
      "stateMutability": "view",
      "type": "function"
    },
    {
      "inputs": [
        {
          "internalType": "uint256",
          "name": "newFeeBPS",
          "type": "uint256"
        }
      ],
      "name": "setFeeBasisPoints",
      "outputs": [],
      "stateMutability": "nonpayable",
      "type": "function"
    }
  ],
  "bytecode": "0x608060405260fa60015534801561001557600080fd5b5060016000556117248061002a6000396000f3fe608060405234801561001057600080fd5b506004361061007d5760003560e01c806353c7cdf71161005b57806353c7cdf7146100c6578063550fce20146100d9578063b8606eef146100f9578063c22d02631461010257600080fd5b80630165dd2714610082578063191fe1ed146100975780632629f9ce146100b3575b600080fd5b61009561009036600461105d565b61012a565b005b6100a061271081565b6040519081526020015b60405180910390f35b6100a06100c13660046111ca565b610185565b6100956100d436600461123e565b61026a565b6100ec6100e73660046112cb565b6105d5565b6040516100aa9190611342565b6100a060015481565b61011561011036600461135c565b610660565b604080519283529015156020830152016100aa565b6101326109bf565b6127108111156101805760405162461bcd60e51b81526020600482015260146024820152734552523a3a494e56414c49445f4645455f42505360601b60448201526064015b60405180910390fd5b600155565b600082518451146101e85760405162461bcd60e51b815260206004820152602760248201527f496e70757420617272617973206d757374206265206f66207468652073616d65604482015266040d8cadccee8d60cb1b6064820152608401610177565b6101f0610a48565b6001600160a01b031663280306e08585856040518463ffffffff1660e01b815260040161021f939291906113a9565b6020604051808303816000875af115801561023e573d6000803e3d6000fd5b505050506040513d601f19601f820116820180604052508101906102629190611419565b949350505050565b610272610a76565b61029c6040518060400160405280600981526020016818d85b1b081a5b9a5d60ba1b815250610ad0565b83518551146102e65760405162461bcd60e51b8152602060048201526016602482015275092dce0eae840d8cadccee8d0e640dad2e6dac2e8c6d60531b6044820152606401610177565b60005b85518110156105c35761033e604051806040016040528060118152602001705377617070696e6720746f6b656e20257360781b81525087838151811061033157610331611432565b6020026020010151610b16565b61038260405180604001604052806009815260200168416d6f756e7420257360b81b81525086838151811061037557610375611432565b6020026020010151610b5f565b600086828151811061039657610396611432565b6020026020010151905060008683815181106103b4576103b4611432565b602090810291909101015190506103d66001600160a01b038316333084610ba4565b6104066040518060400160405280600e81526020016d5472616e7366657272656420257360901b81525082610b5f565b600061271060015483610419919061145e565b610423919061147d565b90506000610431828461149f565b90506104626040518060400160405280600d81526020016c46656520616d6f756e7420257360981b81525083610b5f565b6104926040518060400160405280600e81526020016d5377617020616d6f756e7420257360901b81525082610b5f565b61049c8483610c15565b6104cb6040518060400160405280600e81526020016d1199595cc818dbdb1b1958dd195960921b815250610ad0565b6104e76104d6610a48565b6001600160a01b0386169083610cb6565b60006104f1610a48565b6001600160a01b031663ac5f2460868b858b8d336040518763ffffffff1660e01b8152600401610526969594939291906114b6565b60408051808303816000875af1158015610544573d6000803e3d6000fd5b505050506040513d601f19601f820116820180604052508101906105689190611500565b915050806105ab5760405162461bcd60e51b815260206004820152601060248201526f1154948e8e94d5d05417d1905253115160821b6044820152606401610177565b505050505080806105bb9061152c565b9150506102e9565b506105ce6001600055565b5050505050565b60606105df610a48565b604051632ef10d7d60e01b81526001600160a01b0386811660048301528581166024830152604482018590529190911690632ef10d7d906064016000604051808303816000875af1158015610638573d6000803e3d6000fd5b505050506040513d6000823e601f3d908101601f191682016040526102629190810190611547565b60008061066b610a76565b6106a96040518060400160405280601e81526020017f63616c6c696e6720626174636853776170546f53696e676c65546f6b656e0000815250610ad0565b6106be6001600160a01b038716333087610ba4565b6106da6106c9610a48565b6001600160a01b0388169086610cb6565b604080518082018252601b81527f72656365697069656e742062616c616e63653a3a4265666f72653a0000000000602082015290516370a0823160e01b81526001600160a01b0385811660048301526107829291908816906370a08231906024015b602060405180830381865afa158015610759573d6000803e3d6000fd5b505050506040513d601f19601f8201168201806040525081019061077d9190611419565b610b5f565b604080518082018252601b81527f72656365697069656e742062616c616e63653a3a4265666f72653a0000000000602082015290516370a0823160e01b81526001600160a01b0385811660048301526107e89291908916906370a082319060240161073c565b6107f0610a48565b6001600160a01b031663ac5f2460878787600088336040518763ffffffff1660e01b8152600401610826969594939291906114b6565b60408051808303816000875af1158015610844573d6000803e3d6000fd5b505050506040513d601f19601f820116820180604052508101906108689190611500565b9092509050806108ad5760405162461bcd60e51b815260206004820152601060248201526f1154948e8e94d5d05417d1905253115160821b6044820152606401610177565b6108e06040518060400160405280601081526020016f5377617070656420257320746f20257360801b8152508787610dcb565b604080518082018252601a81527f72656365697069656e742062616c616e63653a3a41667465723a000000000000602082015290516370a0823160e01b81526001600160a01b0385811660048301526109469291908816906370a082319060240161073c565b604080518082018252601a81527f72656365697069656e742062616c616e63653a3a41667465723a000000000000602082015290516370a0823160e01b81526001600160a01b0385811660048301526109ac9291908916906370a082319060240161073c565b6109b66001600055565b94509492505050565b7fc8fcad8db84d3cc18b4c41d551ea0ee66dd599cde068d998e57d5e09332c131c600401546001600160a01b03163314610a465760405162461bcd60e51b815260206004820152602260248201527f4c69624469616d6f6e643a204d75737420626520636f6e7472616374206f776e60448201526132b960f11b6064820152608401610177565b565b7fc8fcad8db84d3cc18b4c41d551ea0ee66dd599cde068d998e57d5e09332c1321546001600160a01b031690565b60026000541415610ac95760405162461bcd60e51b815260206004820152601f60248201527f5265656e7472616e637947756172643a207265656e7472616e742063616c6c006044820152606401610177565b6002600055565b610b1381604051602401610ae49190611625565b60408051601f198184030181529190526020810180516001600160e01b031663104c13eb60e21b179052610e0e565b50565b610b5b8282604051602401610b2c929190611638565b60408051601f198184030181529190526020810180516001600160e01b031663319af33360e01b179052610e0e565b5050565b610b5b8282604051602401610b75929190611662565b60408051601f198184030181529190526020810180516001600160e01b0316632d839cb360e21b179052610e0e565b6040516001600160a01b0380851660248301528316604482015260648101829052610c0f9085906323b872dd60e01b906084015b60408051601f198184030181529190526020810180516001600160e01b03166001600160e01b031990931692909217909152610e17565b50505050565b6000610c487fc8fcad8db84d3cc18b4c41d551ea0ee66dd599cde068d998e57d5e09332c1320546001600160a01b031690565b90506001600160a01b03811615610cb157610c6d6001600160a01b0384168284610eec565b806001600160a01b03167f9dc46f23cfb5ddcad0ae7ea2be38d47fec07bb9382ec7e564efc69e036dd66ce83604051610ca891815260200190565b60405180910390a25b505050565b801580610d305750604051636eb1769f60e11b81523060048201526001600160a01b03838116602483015284169063dd62ed3e90604401602060405180830381865afa158015610d0a573d6000803e3d6000fd5b505050506040513d601f19601f82011682018060405250810190610d2e9190611419565b155b610d9b5760405162461bcd60e51b815260206004820152603660248201527f5361666545524332303a20617070726f76652066726f6d206e6f6e2d7a65726f60448201527520746f206e6f6e2d7a65726f20616c6c6f77616e636560501b6064820152608401610177565b6040516001600160a01b038316602482015260448101829052610cb190849063095ea7b360e01b90606401610bd8565b610cb1838383604051602401610de393929190611684565b60408051601f198184030181529190526020810180516001600160e01b03166307e763af60e51b1790525b610b1381610f1c565b6000610e6c826040518060400160405280602081526020017f5361666545524332303a206c6f772d6c6576656c2063616c6c206661696c6564815250856001600160a01b0316610f3d9092919063ffffffff16565b9050805160001480610e8d575080806020019051810190610e8d91906116b7565b610cb15760405162461bcd60e51b815260206004820152602a60248201527f5361666545524332303a204552433230206f7065726174696f6e20646964206e6044820152691bdd081cdd58d8d9595960b21b6064820152608401610177565b6040516001600160a01b038316602482015260448101829052610cb190849063a9059cbb60e01b90606401610bd8565b60006a636f6e736f6c652e6c6f679050600080835160208501845afa505050565b6060610262848460008585600080866001600160a01b03168587604051610f6491906116d2565b60006040518083038185875af1925050503d8060008114610fa1576040519150601f19603f3d011682016040523d82523d6000602084013e610fa6565b606091505b5091509150610fb787838387610fc2565b979650505050505050565b6060831561102e578251611027576001600160a01b0385163b6110275760405162461bcd60e51b815260206004820152601d60248201527f416464726573733a2063616c6c20746f206e6f6e2d636f6e74726163740000006044820152606401610177565b5081610262565b61026283838151156110435781518083602001fd5b8060405162461bcd60e51b81526004016101779190611625565b60006020828403121561106f57600080fd5b5035919050565b634e487b7160e01b600052604160045260246000fd5b604051601f8201601f1916810167ffffffffffffffff811182821017156110b5576110b5611076565b604052919050565b600067ffffffffffffffff8211156110d7576110d7611076565b5060051b60200190565b80356001600160a01b03811681146110f857600080fd5b919050565b600082601f83011261110e57600080fd5b8135602061112361111e836110bd565b61108c565b82815260059290921b8401810191818101908684111561114257600080fd5b8286015b8481101561116457611157816110e1565b8352918301918301611146565b509695505050505050565b600082601f83011261118057600080fd5b8135602061119061111e836110bd565b82815260059290921b840181019181810190868411156111af57600080fd5b8286015b8481101561116457803583529183019183016111b3565b6000806000606084860312156111df57600080fd5b833567ffffffffffffffff808211156111f757600080fd5b611203878388016110fd565b9450602086013591508082111561121957600080fd5b506112268682870161116f565b925050611235604085016110e1565b90509250925092565b600080600080600060a0868803121561125657600080fd5b853567ffffffffffffffff8082111561126e57600080fd5b61127a89838a016110fd565b9650602088013591508082111561129057600080fd5b5061129d8882890161116f565b9450506112ac604087016110e1565b92506112ba606087016110e1565b949793965091946080013592915050565b6000806000606084860312156112e057600080fd5b6112e9846110e1565b92506112f7602085016110e1565b9150604084013590509250925092565b600081518084526020808501945080840160005b838110156113375781518752958201959082019060010161131b565b509495945050505050565b6020815260006113556020830184611307565b9392505050565b6000806000806080858703121561137257600080fd5b61137b856110e1565b9350611389602086016110e1565b92506040850135915061139e606086016110e1565b905092959194509250565b606080825284519082018190526000906020906080840190828801845b828110156113eb5781516001600160a01b0316845292840192908401906001016113c6565b505050838103828501526113ff8187611307565b9250505060018060a01b0383166040830152949350505050565b60006020828403121561142b57600080fd5b5051919050565b634e487b7160e01b600052603260045260246000fd5b634e487b7160e01b600052601160045260246000fd5b600081600019048311821515161561147857611478611448565b500290565b60008261149a57634e487b7160e01b600052601260045260246000fd5b500490565b6000828210156114b1576114b1611448565b500390565b6001600160a01b0396871681529486166020860152604085019390935260608401919091528316608083015290911660a082015260c00190565b805180151581146110f857600080fd5b6000806040838503121561151357600080fd5b82519150611523602084016114f0565b90509250929050565b600060001982141561154057611540611448565b5060010190565b6000602080838503121561155a57600080fd5b825167ffffffffffffffff81111561157157600080fd5b8301601f8101851361158257600080fd5b805161159061111e826110bd565b81815260059190911b820183019083810190878311156115af57600080fd5b928401925b82841015610fb7578351825292840192908401906115b4565b60005b838110156115e85781810151838201526020016115d0565b83811115610c0f5750506000910152565b600081518084526116118160208601602086016115cd565b601f01601f19169290920160200192915050565b60208152600061135560208301846115f9565b60408152600061164b60408301856115f9565b905060018060a01b03831660208301529392505050565b60408152600061167560408301856115f9565b90508260208301529392505050565b60608152600061169760608301866115f9565b6001600160a01b0394851660208401529290931660409091015292915050565b6000602082840312156116c957600080fd5b611355826114f0565b600082516116e48184602087016115cd565b919091019291505056fea264697066735822122046b0ff0ae04ac8d3f5464d9bcec43f238473264994ca96be083aea65dcf6fc8664736f6c634300080a0033",
  "linkReferences": {},
  "deployedLinkReferences": {}
}