{
  "_format": "hh-sol-artifact-1",
  "contractName": "MultiBatchSwapFacet",
  "sourceName": "contracts/facets/MultiBatchSwapFacet.sol",
  "abi": [
    {
      "inputs": [
        {
          "internalType": "address",
          "name": "_uniswapRouter",
          "type": "address"
        },
        {
          "internalType": "address",
          "name": "_uniswapFactory",
          "type": "address"
        }
      ],
      "stateMutability": "nonpayable",
      "type": "constructor"
    },
    {
      "anonymous": false,
      "inputs": [
        {
          "indexed": true,
          "internalType": "address",
          "name": "collector",
          "type": "address"
        },
        {
          "indexed": false,
          "internalType": "uint256",
          "name": "feeAmount",
          "type": "uint256"
        }
      ],
      "name": "FeesCollected",
      "type": "event"
    },
    {
      "anonymous": false,
      "inputs": [
        {
          "indexed": true,
          "internalType": "address",
          "name": "previousOwner",
          "type": "address"
        },
        {
          "indexed": true,
          "internalType": "address",
          "name": "newOwner",
          "type": "address"
        }
      ],
      "name": "OwnershipTransferred",
      "type": "event"
    },
    {
      "anonymous": false,
      "inputs": [
        {
          "indexed": true,
          "internalType": "address",
          "name": "user",
          "type": "address"
        },
        {
          "indexed": true,
          "internalType": "address",
          "name": "fromToken",
          "type": "address"
        },
        {
          "indexed": true,
          "internalType": "address",
          "name": "toToken",
          "type": "address"
        },
        {
          "indexed": false,
          "internalType": "uint256",
          "name": "inputAmount",
          "type": "uint256"
        },
        {
          "indexed": false,
          "internalType": "uint256",
          "name": "outputAmount",
          "type": "uint256"
        },
        {
          "indexed": false,
          "internalType": "uint256",
          "name": "gasCost",
          "type": "uint256"
        },
        {
          "indexed": false,
          "internalType": "uint256",
          "name": "slippage",
          "type": "uint256"
        }
      ],
      "name": "TokensSwapped",
      "type": "event"
    },
    {
      "inputs": [],
      "name": "BPS_DIVISOR",
      "outputs": [
        {
          "internalType": "uint256",
          "name": "",
          "type": "uint256"
        }
      ],
      "stateMutability": "view",
      "type": "function"
    },
    {
      "inputs": [
        {
          "internalType": "address",
          "name": "fromToken",
          "type": "address"
        },
        {
          "internalType": "address",
          "name": "toToken",
          "type": "address"
        },
        {
          "internalType": "uint256",
          "name": "amount",
          "type": "uint256"
        },
        {
          "internalType": "address",
          "name": "recipient",
          "type": "address"
        }
      ],
      "name": "batchSwapToSingleToken",
      "outputs": [],
      "stateMutability": "nonpayable",
      "type": "function"
    },
    {
      "inputs": [
        {
          "internalType": "address[]",
          "name": "inputTokens",
          "type": "address[]"
        },
        {
          "internalType": "uint256[]",
          "name": "inputAmounts",
          "type": "uint256[]"
        },
        {
          "internalType": "address",
          "name": "outputToken",
          "type": "address"
        },
        {
          "internalType": "address",
          "name": "recipient",
          "type": "address"
        },
        {
          "internalType": "uint256",
          "name": "slippageTolerance",
          "type": "uint256"
        }
      ],
      "name": "batchSwapsToSingleToken",
      "outputs": [],
      "stateMutability": "nonpayable",
      "type": "function"
    },
    {
      "inputs": [
        {
          "internalType": "address",
          "name": "fromToken",
          "type": "address"
        },
        {
          "internalType": "address",
          "name": "toToken",
          "type": "address"
        },
        {
          "internalType": "uint256",
          "name": "inputAmount",
          "type": "uint256"
        }
      ],
      "name": "estimateSwapOutput",
      "outputs": [
        {
          "internalType": "uint256[]",
          "name": "",
          "type": "uint256[]"
        }
      ],
      "stateMutability": "view",
      "type": "function"
    },
    {
      "inputs": [],
      "name": "feeBasisPoints",
      "outputs": [
        {
          "internalType": "uint256",
          "name": "",
          "type": "uint256"
        }
      ],
      "stateMutability": "view",
      "type": "function"
    },
    {
      "inputs": [],
      "name": "owner",
      "outputs": [
        {
          "internalType": "address",
          "name": "",
          "type": "address"
        }
      ],
      "stateMutability": "view",
      "type": "function"
    },
    {
      "inputs": [],
      "name": "quickswapRouter",
      "outputs": [
        {
          "internalType": "contract IUniswapV2Router",
          "name": "",
          "type": "address"
        }
      ],
      "stateMutability": "view",
      "type": "function"
    },
    {
      "inputs": [],
      "name": "renounceOwnership",
      "outputs": [],
      "stateMutability": "nonpayable",
      "type": "function"
    },
    {
      "inputs": [
        {
          "internalType": "uint256",
          "name": "newFeeBPS",
          "type": "uint256"
        }
      ],
      "name": "setFeeBasisPoints",
      "outputs": [],
      "stateMutability": "nonpayable",
      "type": "function"
    },
    {
      "inputs": [
        {
          "internalType": "address",
          "name": "newOwner",
          "type": "address"
        }
      ],
      "name": "transferOwnership",
      "outputs": [],
      "stateMutability": "nonpayable",
      "type": "function"
    },
    {
      "inputs": [],
      "name": "uniswapFactory",
      "outputs": [
        {
          "internalType": "contract IUniswapV2Factory",
          "name": "",
          "type": "address"
        }
      ],
      "stateMutability": "view",
      "type": "function"
    }
  ],
  "bytecode": "0x60c060405260fa6002553480156200001657600080fd5b506040516200216038038062002160833981016040819052620000399162000184565b6001600055620000493362000115565b6001600160a01b038216620000a55760405162461bcd60e51b815260206004820152601960248201527f4552523a3a5a45524f5f414444524553533a3a524f555445520000000000000060448201526064015b60405180910390fd5b6001600160a01b038116620000fd5760405162461bcd60e51b815260206004820152601a60248201527f4552523a3a5a45524f5f414444524553533a3a464143544f525900000000000060448201526064016200009c565b6001600160a01b039182166080521660a052620001bc565b600180546001600160a01b038381166001600160a01b0319831681179093556040519116919082907f8be0079c531659141344cd1fd0a4f28419497f9722a3daafe3b4186f6b6457e090600090a35050565b80516001600160a01b03811681146200017f57600080fd5b919050565b600080604083850312156200019857600080fd5b620001a38362000167565b9150620001b36020840162000167565b90509250929050565b60805160a051611f4d620002136000396000818161011f01528181610976015261132c01526000818161015e0152818161048b0152818161057901528181610839015281816109270152610bf00152611f4d6000f3fe608060405234801561001057600080fd5b50600436106100a95760003560e01c80638bdb2afa116100715780638bdb2afa1461011a5780638d87c4eb146101595780638da5cb5b14610180578063b8606eef14610191578063c22d02631461019a578063f2fde38b146101ad57600080fd5b80630165dd27146100ae578063191fe1ed146100c357806353c7cdf7146100df578063550fce20146100f2578063715018a614610112575b600080fd5b6100c16100bc3660046118cd565b6101c0565b005b6100cc61271081565b6040519081526020015b60405180910390f35b6100c16100ed3660046119e1565b61021b565b610105610100366004611acc565b610811565b6040516100d69190611b0d565b6100c16108be565b6101417f000000000000000000000000000000000000000000000000000000000000000081565b6040516001600160a01b0390911681526020016100d6565b6101417f000000000000000000000000000000000000000000000000000000000000000081565b6001546001600160a01b0316610141565b6100cc60025481565b6100c16101a8366004611b51565b6108d2565b6100c16101bb366004611ba4565b610e2c565b6101c8610ea5565b6127108111156102165760405162461bcd60e51b81526020600482015260146024820152734552523a3a494e56414c49445f4645455f42505360601b60448201526064015b60405180910390fd5b600255565b610223610eff565b61024d6040518060400160405280600981526020016818d85b1b081a5b9a5d60ba1b815250610f59565b83518551146102975760405162461bcd60e51b8152602060048201526016602482015275092dce0eae840d8cadccee8d0e640dad2e6dac2e8c6d60531b604482015260640161020d565b60005b85518110156107ff576102ef604051806040016040528060118152602001705377617070696e6720746f6b656e20257360781b8152508783815181106102e2576102e2611bc8565b6020026020010151610f9c565b61033360405180604001604052806009815260200168416d6f756e7420257360b81b81525086838151811061032657610326611bc8565b6020026020010151610fe5565b600086828151811061034757610347611bc8565b60200260200101519050600086838151811061036557610365611bc8565b602090810291909101015190506103876001600160a01b03831633308461102a565b6103b76040518060400160405280600e81526020016d5472616e7366657272656420257360901b81525082610fe5565b6000612710600254836103ca9190611bf4565b6103d49190611c13565b905060006103e28284611c35565b90506104136040518060400160405280600d81526020016c46656520616d6f756e7420257360981b81525083610fe5565b6104436040518060400160405280600e81526020016d5377617020616d6f756e7420257360901b81525082610fe5565b61044d8483611095565b61047c6040518060400160405280600e81526020016d1199595cc818dbdb1b1958dd195960921b815250610f59565b6104b06001600160a01b0385167f000000000000000000000000000000000000000000000000000000000000000083611117565b60408051600280825260608201835260009260208301908036833701905050905084816000815181106104e5576104e5611bc8565b60200260200101906001600160a01b031690816001600160a01b031681525050888160018151811061051957610519611bc8565b60200260200101906001600160a01b031690816001600160a01b03168152505061056d604051806040016040528060118152602001705377617070696e6720257320746f20257360781b815250868b61122c565b60006001600160a01b037f0000000000000000000000000000000000000000000000000000000000000000166338ed17398483858d6105ad426002611bf4565b6040518663ffffffff1660e01b81526004016105cd959493929190611c90565b6000604051808303816000875af11580156105ec573d6000803e3d6000fd5b505050506040513d6000823e601f3d908101601f191682016040526106149190810190611ccc565b90506106496040518060400160405280601081526020016f5377617070656420257320746f20257360801b815250878c61122c565b604080518082018252601e81527f72656365697069656e742062616c616e63652061667465722073776170200000602082015290516370a0823160e01b81526001600160a01b038b811660048301526106f19291908d16906370a0823190602401602060405180830381865afa1580156106c7573d6000803e3d6000fd5b505050506040513d601f19601f820116820180604052508101906106eb9190611d52565b8b611273565b6040516370a0823160e01b81526001600160a01b038a8116600483015261076591908816906370a0823190602401602060405180830381865afa15801561073c573d6000803e3d6000fd5b505050506040513d601f19601f820116820180604052508101906107609190611d52565b6112ba565b896001600160a01b0316866001600160a01b0316336001600160a01b03167f9b0a249a3c195624de19de7ff6dee954b9ff72e8503f8e5164c74d462235bcde86856001815181106107b8576107b8611bc8565b60209081029190910181015160408051938452918301523a90820152606081018d905260800160405180910390a450505050505080806107f790611d6b565b91505061029a565b5061080a6001600055565b5050505050565b6060600061081f85856112ff565b60405163d06ca61f60e01b81529091506001600160a01b037f0000000000000000000000000000000000000000000000000000000000000000169063d06ca61f906108709086908590600401611d86565b600060405180830381865afa15801561088d573d6000803e3d6000fd5b505050506040513d6000823e601f3d908101601f191682016040526108b59190810190611ccc565b95945050505050565b6108c6610ea5565b6108d060006114e3565b565b6108da610eff565b6109186040518060400160405280601e81526020017f63616c6c696e6720626174636853776170546f53696e676c65546f6b656e0000815250610f59565b61094c6001600160a01b0385167f000000000000000000000000000000000000000000000000000000000000000084611117565b60405163e6a4390560e01b81526001600160a01b03858116600483015284811660248301526000917f00000000000000000000000000000000000000000000000000000000000000009091169063e6a4390590604401602060405180830381865afa1580156109bf573d6000803e3d6000fd5b505050506040513d601f19601f820116820180604052508101906109e39190611d9f565b9050610a156040518060400160405280600e81526020016d646972656374207061697220257360901b81525082610f9c565b604080518082018252601b81527f72656365697069656e742062616c616e63653a3a4265666f72653a0000000000602082015290516370a0823160e01b81526001600160a01b038481166004830152606092610ac09290918816906370a08231906024015b602060405180830381865afa158015610a97573d6000803e3d6000fd5b505050506040513d601f19601f82011682018060405250810190610abb9190611d52565b610fe5565b604080518082018252601b81527f72656365697069656e742062616c616e63653a3a4265666f72653a0000000000602082015290516370a0823160e01b81526001600160a01b038581166004830152610b269291908916906370a0823190602401610a7a565b610b3b6001600160a01b03871633308761102a565b6001600160a01b03821615610bd75760408051600280825260608201835290916020830190803683370190505090508581600081518110610b7e57610b7e611bc8565b60200260200101906001600160a01b031690816001600160a01b0316815250508481600181518110610bb257610bb2611bc8565b60200260200101906001600160a01b031690816001600160a01b031681525050610be4565b610be18686611535565b90505b60006001600160a01b037f0000000000000000000000000000000000000000000000000000000000000000166338ed173986838588610c24426003611bf4565b6040518663ffffffff1660e01b8152600401610c44959493929190611c90565b6000604051808303816000875af1158015610c63573d6000803e3d6000fd5b505050506040513d6000823e601f3d908101601f19168201604052610c8b9190810190611ccc565b9050610cc06040518060400160405280601081526020016f5377617070656420257320746f20257360801b815250888861122c565b604080518082018252601a81527f72656365697069656e742062616c616e63653a3a41667465723a000000000000602082015290516370a0823160e01b81526001600160a01b038681166004830152610d269291908916906370a0823190602401610a7a565b604080518082018252601a81527f72656365697069656e742062616c616e63653a3a41667465723a000000000000602082015290516370a0823160e01b81526001600160a01b038681166004830152610d8c9291908a16906370a0823190602401610a7a565b856001600160a01b0316876001600160a01b0316336001600160a01b03167f9b0a249a3c195624de19de7ff6dee954b9ff72e8503f8e5164c74d462235bcde888560018751610ddb9190611c35565b81518110610deb57610deb611bc8565b60209081029190910181015160408051938452918301523a908201526000606082015260800160405180910390a4505050610e266001600055565b50505050565b610e34610ea5565b6001600160a01b038116610e995760405162461bcd60e51b815260206004820152602660248201527f4f776e61626c653a206e6577206f776e657220697320746865207a65726f206160448201526564647265737360d01b606482015260840161020d565b610ea2816114e3565b50565b6001546001600160a01b031633146108d05760405162461bcd60e51b815260206004820181905260248201527f4f776e61626c653a2063616c6c6572206973206e6f7420746865206f776e6572604482015260640161020d565b60026000541415610f525760405162461bcd60e51b815260206004820152601f60248201527f5265656e7472616e637947756172643a207265656e7472616e742063616c6c00604482015260640161020d565b6002600055565b610ea281604051602401610f6d9190611e14565b60408051601f198184030181529190526020810180516001600160e01b031663104c13eb60e21b179052611611565b610fe18282604051602401610fb2929190611e27565b60408051601f198184030181529190526020810180516001600160e01b031663319af33360e01b179052611611565b5050565b610fe18282604051602401610ffb929190611e51565b60408051601f198184030181529190526020810180516001600160e01b0316632d839cb360e21b179052611611565b6040516001600160a01b0380851660248301528316604482015260648101829052610e269085906323b872dd60e01b906084015b60408051601f198184030181529190526020810180516001600160e01b03166001600160e01b03199093169290921790915261161a565b60006110a96001546001600160a01b031690565b90506001600160a01b03811615611112576110ce6001600160a01b03841682846116ef565b806001600160a01b03167f9dc46f23cfb5ddcad0ae7ea2be38d47fec07bb9382ec7e564efc69e036dd66ce8360405161110991815260200190565b60405180910390a25b505050565b8015806111915750604051636eb1769f60e11b81523060048201526001600160a01b03838116602483015284169063dd62ed3e90604401602060405180830381865afa15801561116b573d6000803e3d6000fd5b505050506040513d601f19601f8201168201806040525081019061118f9190611d52565b155b6111fc5760405162461bcd60e51b815260206004820152603660248201527f5361666545524332303a20617070726f76652066726f6d206e6f6e2d7a65726f60448201527520746f206e6f6e2d7a65726f20616c6c6f77616e636560501b606482015260840161020d565b6040516001600160a01b03831660248201526044810182905261111290849063095ea7b360e01b9060640161105e565b61111283838360405160240161124493929190611e73565b60408051601f198184030181529190526020810180516001600160e01b03166307e763af60e51b179052611611565b61111283838360405160240161128b93929190611ea6565b60408051601f198184030181529190526020810180516001600160e01b031663038fd88960e31b179052611611565b610ea2816040516024016112d091815260200190565b60408051601f198184030181529190526020810180516001600160e01b031663f82c50f160e01b179052611611565b60405163e6a4390560e01b81526001600160a01b03838116600483015282811660248301526060916000917f0000000000000000000000000000000000000000000000000000000000000000169063e6a4390590604401602060405180830381865afa158015611373573d6000803e3d6000fd5b505050506040513d601f19601f820116820180604052508101906113979190611d9f565b90506001600160a01b038116156114325760408051600280825260608201835260009260208301908036833701905050905084816000815181106113dd576113dd611bc8565b60200260200101906001600160a01b031690816001600160a01b031681525050838160018151811061141157611411611bc8565b6001600160a01b039092166020928302919091019091015291506114dd9050565b6040805160038082526080820190925260009160208201606080368337019050509050848160008151811061146957611469611bc8565b6001600160a01b0390921660209283029190910190910152733c499c542cef5e3811e1192ce70d8cc03d5c3359816001815181106114a9576114a9611bc8565b60200260200101906001600160a01b031690816001600160a01b031681525050838160028151811061141157611411611bc8565b92915050565b600180546001600160a01b038381166001600160a01b0319831681179093556040519116919082907f8be0079c531659141344cd1fd0a4f28419497f9722a3daafe3b4186f6b6457e090600090a35050565b60408051600380825260808201909252606091600091906020820184803683370190505090506000733c499c542cef5e3811e1192ce70d8cc03d5c33599050848260008151811061158857611588611bc8565b60200260200101906001600160a01b031690816001600160a01b03168152505080826001815181106115bc576115bc611bc8565b60200260200101906001600160a01b031690816001600160a01b03168152505083826002815181106115f0576115f0611bc8565b6001600160a01b039092166020928302919091019091015250905092915050565b610ea28161171f565b600061166f826040518060400160405280602081526020017f5361666545524332303a206c6f772d6c6576656c2063616c6c206661696c6564815250856001600160a01b03166117409092919063ffffffff16565b90508051600014806116905750808060200190518101906116909190611ed9565b6111125760405162461bcd60e51b815260206004820152602a60248201527f5361666545524332303a204552433230206f7065726174696f6e20646964206e6044820152691bdd081cdd58d8d9595960b21b606482015260840161020d565b6040516001600160a01b03831660248201526044810182905261111290849063a9059cbb60e01b9060640161105e565b60006a636f6e736f6c652e6c6f679050600080835160208501845afa505050565b606061174f8484600085611757565b949350505050565b6060824710156117b85760405162461bcd60e51b815260206004820152602660248201527f416464726573733a20696e73756666696369656e742062616c616e636520666f6044820152651c8818d85b1b60d21b606482015260840161020d565b600080866001600160a01b031685876040516117d49190611efb565b60006040518083038185875af1925050503d8060008114611811576040519150601f19603f3d011682016040523d82523d6000602084013e611816565b606091505b509150915061182787838387611832565b979650505050505050565b6060831561189e578251611897576001600160a01b0385163b6118975760405162461bcd60e51b815260206004820152601d60248201527f416464726573733a2063616c6c20746f206e6f6e2d636f6e7472616374000000604482015260640161020d565b508161174f565b61174f83838151156118b35781518083602001fd5b8060405162461bcd60e51b815260040161020d9190611e14565b6000602082840312156118df57600080fd5b5035919050565b634e487b7160e01b600052604160045260246000fd5b604051601f8201601f1916810167ffffffffffffffff81118282101715611925576119256118e6565b604052919050565b600067ffffffffffffffff821115611947576119476118e6565b5060051b60200190565b6001600160a01b0381168114610ea257600080fd5b803561197181611951565b919050565b600082601f83011261198757600080fd5b8135602061199c6119978361192d565b6118fc565b82815260059290921b840181019181810190868411156119bb57600080fd5b8286015b848110156119d657803583529183019183016119bf565b509695505050505050565b600080600080600060a086880312156119f957600080fd5b853567ffffffffffffffff80821115611a1157600080fd5b818801915088601f830112611a2557600080fd5b81356020611a356119978361192d565b82815260059290921b8401810191818101908c841115611a5457600080fd5b948201945b83861015611a7b578535611a6c81611951565b82529482019490820190611a59565b99505089013592505080821115611a9157600080fd5b50611a9e88828901611976565b945050611aad60408701611966565b9250611abb60608701611966565b949793965091946080013592915050565b600080600060608486031215611ae157600080fd5b8335611aec81611951565b92506020840135611afc81611951565b929592945050506040919091013590565b6020808252825182820181905260009190848201906040850190845b81811015611b4557835183529284019291840191600101611b29565b50909695505050505050565b60008060008060808587031215611b6757600080fd5b8435611b7281611951565b93506020850135611b8281611951565b9250604085013591506060850135611b9981611951565b939692955090935050565b600060208284031215611bb657600080fd5b8135611bc181611951565b9392505050565b634e487b7160e01b600052603260045260246000fd5b634e487b7160e01b600052601160045260246000fd5b6000816000190483118215151615611c0e57611c0e611bde565b500290565b600082611c3057634e487b7160e01b600052601260045260246000fd5b500490565b600082821015611c4757611c47611bde565b500390565b600081518084526020808501945080840160005b83811015611c855781516001600160a01b031687529582019590820190600101611c60565b509495945050505050565b85815284602082015260a060408201526000611caf60a0830186611c4c565b6001600160a01b0394909416606083015250608001529392505050565b60006020808385031215611cdf57600080fd5b825167ffffffffffffffff811115611cf657600080fd5b8301601f81018513611d0757600080fd5b8051611d156119978261192d565b81815260059190911b82018301908381019087831115611d3457600080fd5b928401925b8284101561182757835182529284019290840190611d39565b600060208284031215611d6457600080fd5b5051919050565b6000600019821415611d7f57611d7f611bde565b5060010190565b82815260406020820152600061174f6040830184611c4c565b600060208284031215611db157600080fd5b8151611bc181611951565b60005b83811015611dd7578181015183820152602001611dbf565b83811115610e265750506000910152565b60008151808452611e00816020860160208601611dbc565b601f01601f19169290920160200192915050565b602081526000611bc16020830184611de8565b604081526000611e3a6040830185611de8565b905060018060a01b03831660208301529392505050565b604081526000611e646040830185611de8565b90508260208301529392505050565b606081526000611e866060830186611de8565b6001600160a01b0394851660208401529290931660409091015292915050565b606081526000611eb96060830186611de8565b6020830194909452506001600160a01b0391909116604090910152919050565b600060208284031215611eeb57600080fd5b81518015158114611bc157600080fd5b60008251611f0d818460208701611dbc565b919091019291505056fea2646970667358221220aca780b0c2350c528a0f4a7879e3018a17520d7b5c29545687b7d8e852e2a6d364736f6c634300080a0033",
  "linkReferences": {},
  "deployedLinkReferences": {}
}