{
  "address": "0x03725BeFD517eCfCc6Dff1F16954F7450A10D545",
  "abi": [
    {
      "inputs": [
        {
          "internalType": "address",
          "name": "_priceAggregator",
          "type": "address"
        },
        {
          "internalType": "address",
          "name": "_uniswapRouter",
          "type": "address"
        }
      ],
      "stateMutability": "nonpayable",
      "type": "constructor"
    },
    {
      "anonymous": false,
      "inputs": [
        {
          "indexed": true,
          "internalType": "address",
          "name": "user",
          "type": "address"
        },
        {
          "indexed": false,
          "internalType": "uint256",
          "name": "index",
          "type": "uint256"
        }
      ],
      "name": "AllOrdersExecuted",
      "type": "event"
    },
    {
      "anonymous": false,
      "inputs": [
        {
          "indexed": true,
          "internalType": "address",
          "name": "user",
          "type": "address"
        },
        {
          "indexed": false,
          "internalType": "address",
          "name": "fromToken",
          "type": "address"
        },
        {
          "indexed": false,
          "internalType": "address",
          "name": "toToken",
          "type": "address"
        },
        {
          "indexed": false,
          "internalType": "uint256",
          "name": "amount",
          "type": "uint256"
        }
      ],
      "name": "DCAExecuted",
      "type": "event"
    },
    {
      "anonymous": false,
      "inputs": [
        {
          "indexed": true,
          "internalType": "address",
          "name": "user",
          "type": "address"
        },
        {
          "indexed": false,
          "internalType": "address",
          "name": "fromToken",
          "type": "address"
        },
        {
          "indexed": false,
          "internalType": "address",
          "name": "toToken",
          "type": "address"
        },
        {
          "indexed": false,
          "internalType": "uint256",
          "name": "amount",
          "type": "uint256"
        },
        {
          "indexed": false,
          "internalType": "uint256",
          "name": "interval",
          "type": "uint256"
        },
        {
          "indexed": false,
          "internalType": "uint256",
          "name": "orderCount",
          "type": "uint256"
        }
      ],
      "name": "DCASetup",
      "type": "event"
    },
    {
      "inputs": [],
      "name": "FEE_DECIMALS",
      "outputs": [
        {
          "internalType": "uint256",
          "name": "",
          "type": "uint256"
        }
      ],
      "stateMutability": "view",
      "type": "function"
    },
    {
      "inputs": [
        {
          "internalType": "bytes",
          "name": "",
          "type": "bytes"
        }
      ],
      "name": "checkUpkeep",
      "outputs": [
        {
          "internalType": "bool",
          "name": "upkeepNeeded",
          "type": "bool"
        },
        {
          "internalType": "bytes",
          "name": "",
          "type": "bytes"
        }
      ],
      "stateMutability": "view",
      "type": "function"
    },
    {
      "inputs": [
        {
          "internalType": "uint256",
          "name": "index",
          "type": "uint256"
        }
      ],
      "name": "executeDCA",
      "outputs": [],
      "stateMutability": "nonpayable",
      "type": "function"
    },
    {
      "inputs": [],
      "name": "feeRate",
      "outputs": [
        {
          "internalType": "uint256",
          "name": "",
          "type": "uint256"
        }
      ],
      "stateMutability": "view",
      "type": "function"
    },
    {
      "inputs": [
        {
          "internalType": "address",
          "name": "user",
          "type": "address"
        }
      ],
      "name": "getAllActiveOrders",
      "outputs": [
        {
          "components": [
            {
              "internalType": "uint256",
              "name": "id",
              "type": "uint256"
            },
            {
              "components": [
                {
                  "internalType": "address",
                  "name": "fromToken",
                  "type": "address"
                },
                {
                  "internalType": "address",
                  "name": "toToken",
                  "type": "address"
                },
                {
                  "internalType": "uint256",
                  "name": "totalAmount",
                  "type": "uint256"
                },
                {
                  "internalType": "uint256",
                  "name": "amountPerInterval",
                  "type": "uint256"
                },
                {
                  "internalType": "uint256",
                  "name": "interval",
                  "type": "uint256"
                },
                {
                  "internalType": "uint256",
                  "name": "nextExecutionTime",
                  "type": "uint256"
                },
                {
                  "internalType": "uint256",
                  "name": "orderCount",
                  "type": "uint256"
                },
                {
                  "internalType": "uint256",
                  "name": "ordersPlaced",
                  "type": "uint256"
                }
              ],
              "internalType": "struct DCAFacet.DCAOrder",
              "name": "order",
              "type": "tuple"
            },
            {
              "internalType": "uint256",
              "name": "remainingAmount",
              "type": "uint256"
            },
            {
              "internalType": "uint256",
              "name": "currentValue",
              "type": "uint256"
            },
            {
              "internalType": "int256",
              "name": "currentPrice",
              "type": "int256"
            }
          ],
          "internalType": "struct DCAFacet.OrderDetail[]",
          "name": "",
          "type": "tuple[]"
        }
      ],
      "stateMutability": "view",
      "type": "function"
    },
    {
      "inputs": [
        {
          "internalType": "address",
          "name": "user",
          "type": "address"
        }
      ],
      "name": "getAllOrders",
      "outputs": [
        {
          "components": [
            {
              "internalType": "address",
              "name": "fromToken",
              "type": "address"
            },
            {
              "internalType": "address",
              "name": "toToken",
              "type": "address"
            },
            {
              "internalType": "uint256",
              "name": "totalAmount",
              "type": "uint256"
            },
            {
              "internalType": "uint256",
              "name": "amountPerInterval",
              "type": "uint256"
            },
            {
              "internalType": "uint256",
              "name": "interval",
              "type": "uint256"
            },
            {
              "internalType": "uint256",
              "name": "nextExecutionTime",
              "type": "uint256"
            },
            {
              "internalType": "uint256",
              "name": "orderCount",
              "type": "uint256"
            },
            {
              "internalType": "uint256",
              "name": "ordersPlaced",
              "type": "uint256"
            }
          ],
          "internalType": "struct DCAFacet.DCAOrder[]",
          "name": "",
          "type": "tuple[]"
        }
      ],
      "stateMutability": "view",
      "type": "function"
    },
    {
      "inputs": [
        {
          "internalType": "address",
          "name": "user",
          "type": "address"
        },
        {
          "internalType": "uint256",
          "name": "index",
          "type": "uint256"
        }
      ],
      "name": "getOrderDetails",
      "outputs": [
        {
          "components": [
            {
              "internalType": "uint256",
              "name": "id",
              "type": "uint256"
            },
            {
              "components": [
                {
                  "internalType": "address",
                  "name": "fromToken",
                  "type": "address"
                },
                {
                  "internalType": "address",
                  "name": "toToken",
                  "type": "address"
                },
                {
                  "internalType": "uint256",
                  "name": "totalAmount",
                  "type": "uint256"
                },
                {
                  "internalType": "uint256",
                  "name": "amountPerInterval",
                  "type": "uint256"
                },
                {
                  "internalType": "uint256",
                  "name": "interval",
                  "type": "uint256"
                },
                {
                  "internalType": "uint256",
                  "name": "nextExecutionTime",
                  "type": "uint256"
                },
                {
                  "internalType": "uint256",
                  "name": "orderCount",
                  "type": "uint256"
                },
                {
                  "internalType": "uint256",
                  "name": "ordersPlaced",
                  "type": "uint256"
                }
              ],
              "internalType": "struct DCAFacet.DCAOrder",
              "name": "order",
              "type": "tuple"
            },
            {
              "internalType": "uint256",
              "name": "remainingAmount",
              "type": "uint256"
            },
            {
              "internalType": "uint256",
              "name": "currentValue",
              "type": "uint256"
            },
            {
              "internalType": "int256",
              "name": "currentPrice",
              "type": "int256"
            }
          ],
          "internalType": "struct DCAFacet.OrderDetail",
          "name": "",
          "type": "tuple"
        }
      ],
      "stateMutability": "view",
      "type": "function"
    },
    {
      "inputs": [
        {
          "internalType": "bytes",
          "name": "",
          "type": "bytes"
        }
      ],
      "name": "performUpkeep",
      "outputs": [],
      "stateMutability": "nonpayable",
      "type": "function"
    },
    {
      "inputs": [],
      "name": "priceAggregator",
      "outputs": [
        {
          "internalType": "address",
          "name": "",
          "type": "address"
        }
      ],
      "stateMutability": "view",
      "type": "function"
    },
    {
      "inputs": [
        {
          "internalType": "uint256",
          "name": "_rate",
          "type": "uint256"
        }
      ],
      "name": "setFees",
      "outputs": [],
      "stateMutability": "nonpayable",
      "type": "function"
    },
    {
      "inputs": [
        {
          "internalType": "address",
          "name": "_fromToken",
          "type": "address"
        },
        {
          "internalType": "address",
          "name": "_toToken",
          "type": "address"
        },
        {
          "internalType": "uint256",
          "name": "_totalAmount",
          "type": "uint256"
        },
        {
          "internalType": "uint256",
          "name": "_interval",
          "type": "uint256"
        },
        {
          "internalType": "uint256",
          "name": "_orderCount",
          "type": "uint256"
        }
      ],
      "name": "setupDCA",
      "outputs": [],
      "stateMutability": "nonpayable",
      "type": "function"
    },
    {
      "inputs": [],
      "name": "uniswapRouter",
      "outputs": [
        {
          "internalType": "address",
          "name": "",
          "type": "address"
        }
      ],
      "stateMutability": "view",
      "type": "function"
    },
    {
      "inputs": [
        {
          "internalType": "address",
          "name": "",
          "type": "address"
        },
        {
          "internalType": "uint256",
          "name": "",
          "type": "uint256"
        }
      ],
      "name": "userOrders",
      "outputs": [
        {
          "internalType": "address",
          "name": "fromToken",
          "type": "address"
        },
        {
          "internalType": "address",
          "name": "toToken",
          "type": "address"
        },
        {
          "internalType": "uint256",
          "name": "totalAmount",
          "type": "uint256"
        },
        {
          "internalType": "uint256",
          "name": "amountPerInterval",
          "type": "uint256"
        },
        {
          "internalType": "uint256",
          "name": "interval",
          "type": "uint256"
        },
        {
          "internalType": "uint256",
          "name": "nextExecutionTime",
          "type": "uint256"
        },
        {
          "internalType": "uint256",
          "name": "orderCount",
          "type": "uint256"
        },
        {
          "internalType": "uint256",
          "name": "ordersPlaced",
          "type": "uint256"
        }
      ],
      "stateMutability": "view",
      "type": "function"
    }
  ],
  "transactionHash": "0x65dd6f44459616374bc056e45aa81fbee3265c163d40c76386add251e0ee2794",
  "args": [
    "0xB85C1AeeFE60828C5FAB7F08bc246cD452753EBF",
    "0xa5E0829CaCEd8fFDD4De3c43696c57F7D7A678ff"
  ],
  "numDeployments": 1,
  "solcInputHash": "6c423f90d74e7e3c41b98efc60c2de6a",
  "bytecode": "0x60c060405260fa6001553480156200001657600080fd5b5060405162001acf38038062001acf833981016040819052620000399162000073565b60016000556001600160a01b039182166080521660a052620000ab565b80516001600160a01b03811681146200006e57600080fd5b919050565b600080604083850312156200008757600080fd5b620000928362000056565b9150620000a26020840162000056565b90509250929050565b60805160a0516119f0620000df600039600081816101d00152818161066901526107030152600061011701526119f06000f3fe608060405234801561001057600080fd5b50600436106100cf5760003560e01c8063562e07cd1161008c578063856652e911610066578063856652e9146101f2578063978bbdb91461024b578063b5fec1ff14610262578063ccf288c61461028257600080fd5b8063562e07cd1461018a5780636e04ff0d146101aa578063735de9f7146101cb57600080fd5b80631b36c6c2146100d45780631f7d5689146100fd5780633078fff514610112578063373ad320146101515780633d18678e146101645780634585e33b14610177575b600080fd5b6100e76100e2366004611433565b61028b565b6040516100f491906114e9565b60405180910390f35b61011061010b366004611538565b6104b3565b005b6101397f000000000000000000000000000000000000000000000000000000000000000081565b6040516001600160a01b0390911681526020016100f4565b61011061015f366004611551565b610860565b610110610172366004611538565b610b99565b61011061018536600461159e565b610bf5565b61019d610198366004611610565b610c7a565b6040516100f4919061163a565b6101bd6101b836600461159e565b610df6565b6040516100f49291906116a1565b6101397f000000000000000000000000000000000000000000000000000000000000000081565b610205610200366004611610565b610e7f565b604080516001600160a01b03998a168152989097166020890152958701949094526060860192909252608085015260a084015260c083015260e0820152610100016100f4565b61025460015481565b6040519081526020016100f4565b610275610270366004611433565b610eed565b6040516100f491906116bc565b61025461271081565b60606000805b6001600160a01b03841660009081526002602052604090205481101561035b576001600160a01b03841660009081526002602052604090208054829081106102db576102db6116ff565b90600052602060002090600802016006015460026000866001600160a01b03166001600160a01b031681526020019081526020016000208281548110610323576103236116ff565b906000526020600020906008020160070154101561034957816103458161172b565b9250505b806103538161172b565b915050610291565b5060008167ffffffffffffffff81111561037757610377611746565b6040519080825280602002602001820160405280156103b057816020015b61039d611390565b8152602001906001900390816103955790505b5090506000805b6001600160a01b0386166000908152600260205260409020548110156104a9576001600160a01b0386166000908152600260205260409020805482908110610401576104016116ff565b90600052602060002090600802016006015460026000886001600160a01b03166001600160a01b031681526020019081526020016000208281548110610449576104496116ff565b90600052602060002090600802016007015410156104975761046b8682610c7a565b83838151811061047d5761047d6116ff565b602002602001018190525081806104939061172b565b9250505b806104a18161172b565b9150506103b7565b5090949350505050565b3360009081526002602052604081208054839081106104d4576104d46116ff565b9060005260206000209060080201905080600501544210156105345760405162461bcd60e51b8152602060048201526014602482015273546f6f206561726c7920746f206578656375746560601b60448201526064015b60405180910390fd5b806006015481600701541061058b5760405162461bcd60e51b815260206004820152601760248201527f4f7264657220616c726561647920636f6d706c65746564000000000000000000604482015260640161052b565b6105cb6040518060400160405280601981526020017f457865637574696e672044434120666f722075736572202573000000000000008152503330610fbb565b6040805160028082526060820183526000926020830190803683375050835482519293506001600160a01b03169183915060009061060b5761060b6116ff565b6001600160a01b0392831660209182029290920101526001808401548351921691839190811061063d5761063d6116ff565b6001600160a01b0392831660209182029290920101528254600384015460405163095ea7b360e01b81527f000000000000000000000000000000000000000000000000000000000000000084166004820152602481019190915291169063095ea7b3906044016020604051808303816000875af11580156106c2573d6000803e3d6000fd5b505050506040513d601f19601f820116820180604052508101906106e6919061175c565b5060038201546040516338ed173960e01b81526001600160a01b037f000000000000000000000000000000000000000000000000000000000000000016916338ed173991610740919060009086903390429060040161177e565b6000604051808303816000875af115801561075f573d6000803e3d6000fd5b505050506040513d6000823e601f3d908101601f1916820160405261078791908101906117ef565b5060078201805490600061079a8361172b565b919050555081600401548260050160008282546107b791906118ad565b9091555050815460018301546003840154604080516001600160a01b0394851681529390921660208401529082015233907f58db8ce4db80121275a9378c82683c7bcd829d1e65b3613d4cf082f0259277369060600160405180910390a281600601548260070154141561085b5760405183815233907fea13d8565b9ca41d98f496aaaa6714c5e50977f61d9e0db0a9f64dd611b343729060200160405180910390a25b505050565b600082116108a75760405162461bcd60e51b81526020600482015260146024820152730496e74657276616c206d757374206265203e20360641b604482015260640161052b565b600081116108f75760405162461bcd60e51b815260206004820152601760248201527f4f7264657220636f756e74206d757374206265203e2030000000000000000000604482015260640161052b565b8083101561093e5760405162461bcd60e51b8152602060048201526014602482015273546f74616c20616d6f756e7420746f6f206c6f7760601b604482015260640161052b565b6109536001600160a01b038616333086611002565b604080518082018252601b81527f4443413a3a42616c616e6365204166746572205472616e736665720000000000602082015290516370a0823160e01b81523060048201526109f791906001600160a01b038816906370a0823190602401602060405180830381865afa1580156109ce573d6000803e3d6000fd5b505050506040513d601f19601f820116820180604052508101906109f291906118c5565b611062565b600061271060015485610a0a91906118de565b610a1491906118fd565b90506000610a22828661191f565b90506000610a3084836118fd565b905060026000336001600160a01b03166001600160a01b031681526020019081526020016000206040518061010001604052808a6001600160a01b03168152602001896001600160a01b031681526020018481526020018381526020018781526020018742610a9f91906118ad565b815260208082018890526000604092830181905284546001808201875595825290829020845160089092020180546001600160a01b03199081166001600160a01b03938416178255858401519682018054909116968316969096179095558383015160028601556060808501516003870155608080860151600488015560a080870151600589015560c0870151600689015560e09096015160079097019690965583518e83168152918d16928201929092529182018a9052810188905291820186905233917feeea1e0a2885121cfb92ca69fb90e6c5df8a225dc48b4c983e30ab01ecd06f76910160405180910390a25050505050505050565b600081118015610bab57506127108111155b610bf05760405162461bcd60e51b815260206004820152601660248201527546656573206d7573742062652030203e3d203130302560501b604482015260640161052b565b600155565b610bfd6110a7565b60005b33600090815260026020526040902054811015610c6b57336000908152600260205260409020805482908110610c3857610c386116ff565b9060005260206000209060080201600501544210610c5957610c59816104b3565b80610c638161172b565b915050610c00565b50610c766001600055565b5050565b610c82611390565b6001600160a01b0383166000908152600260205260409020548210610ce95760405162461bcd60e51b815260206004820152601960248201527f4f7264657220696e646578206f7574206f6620626f756e647300000000000000604482015260640161052b565b6001600160a01b0383166000908152600260205260408120805484908110610d1357610d136116ff565b90600052602060002090600802019050600081600701548260060154610d39919061191f565b90506000826003015482610d4d91906118de565b6040805160a0808201835288825282516101008101845287546001600160a01b039081168252600189015416602082810191909152600289015482860152600389015460608084019190915260048a015460808085019190915260058b01549484019490945260068a015460c084015260079099015460e083015283015291810192909252662386f26fc100009482019490945260009381019390935250909150505b92915050565b60006060815b33600090815260026020526040902054811015610e6757336000908152600260205260409020805482908110610e3457610e346116ff565b9060005260206000209060080201600501544210610e555760019250610e67565b80610e5f8161172b565b915050610dfc565b50506040805160208101909152600081529250929050565b60026020528160005260406000208181548110610e9b57600080fd5b6000918252602090912060089091020180546001820154600283015460038401546004850154600586015460068701546007909701546001600160a01b03968716995094909516965091949093919288565b6001600160a01b0381166000908152600260209081526040808320805482518185028101850190935280835260609492939192909184015b82821015610fb057600084815260209081902060408051610100810182526008860290920180546001600160a01b039081168452600180830154909116848601526002820154928401929092526003810154606084015260048101546080840152600581015460a0840152600681015460c08401526007015460e08301529083529092019101610f25565b505050509050919050565b61085b838383604051602401610fd393929190611936565b60408051601f198184030181529190526020810180516001600160e01b03166307e763af60e51b179052611101565b604080516001600160a01b0385811660248301528416604482015260648082018490528251808303909101815260849091019091526020810180516001600160e01b03166323b872dd60e01b17905261105c90859061110d565b50505050565b610c768282604051602401611078929190611969565b60408051601f198184030181529190526020810180516001600160e01b0316632d839cb360e21b179052611101565b600260005414156110fa5760405162461bcd60e51b815260206004820152601f60248201527f5265656e7472616e637947756172643a207265656e7472616e742063616c6c00604482015260640161052b565b6002600055565b61110a816111e2565b50565b6000611162826040518060400160405280602081526020017f5361666545524332303a206c6f772d6c6576656c2063616c6c206661696c6564815250856001600160a01b03166112039092919063ffffffff16565b9050805160001480611183575080806020019051810190611183919061175c565b61085b5760405162461bcd60e51b815260206004820152602a60248201527f5361666545524332303a204552433230206f7065726174696f6e20646964206e6044820152691bdd081cdd58d8d9595960b21b606482015260840161052b565b60006a636f6e736f6c652e6c6f679050600080835160208501845afa505050565b6060611212848460008561121a565b949350505050565b60608247101561127b5760405162461bcd60e51b815260206004820152602660248201527f416464726573733a20696e73756666696369656e742062616c616e636520666f6044820152651c8818d85b1b60d21b606482015260840161052b565b600080866001600160a01b03168587604051611297919061198b565b60006040518083038185875af1925050503d80600081146112d4576040519150601f19603f3d011682016040523d82523d6000602084013e6112d9565b606091505b50915091506112ea878383876112f5565b979650505050505050565b6060831561136157825161135a576001600160a01b0385163b61135a5760405162461bcd60e51b815260206004820152601d60248201527f416464726573733a2063616c6c20746f206e6f6e2d636f6e7472616374000000604482015260640161052b565b5081611212565b61121283838151156113765781518083602001fd5b8060405162461bcd60e51b815260040161052b91906119a7565b6040518060a00160405280600081526020016113fc60405180610100016040528060006001600160a01b0316815260200160006001600160a01b031681526020016000815260200160008152602001600081526020016000815260200160008152602001600081525090565b81526020016000815260200160008152602001600081525090565b80356001600160a01b038116811461142e57600080fd5b919050565b60006020828403121561144557600080fd5b61144e82611417565b9392505050565b60018060a01b038082511683528060208301511660208401525060408101516040830152606081015160608301526080810151608083015260a081015160a083015260c081015160c083015260e081015160e08301525050565b8051825260208101516114c56020840182611455565b50604081015161012083015260608101516101408301526080015161016090910152565b6020808252825182820181905260009190848201906040850190845b8181101561152c576115188385516114af565b928401926101809290920191600101611505565b50909695505050505050565b60006020828403121561154a57600080fd5b5035919050565b600080600080600060a0868803121561156957600080fd5b61157286611417565b945061158060208701611417565b94979496505050506040830135926060810135926080909101359150565b600080602083850312156115b157600080fd5b823567ffffffffffffffff808211156115c957600080fd5b818501915085601f8301126115dd57600080fd5b8135818111156115ec57600080fd5b8660208285010111156115fe57600080fd5b60209290920196919550909350505050565b6000806040838503121561162357600080fd5b61162c83611417565b946020939093013593505050565b6101808101610df082846114af565b60005b8381101561166457818101518382015260200161164c565b8381111561105c5750506000910152565b6000815180845261168d816020860160208601611649565b601f01601f19169290920160200192915050565b82151581526040602082015260006112126040830184611675565b6020808252825182820181905260009190848201906040850190845b8181101561152c576116eb838551611455565b9284019261010092909201916001016116d8565b634e487b7160e01b600052603260045260246000fd5b634e487b7160e01b600052601160045260246000fd5b600060001982141561173f5761173f611715565b5060010190565b634e487b7160e01b600052604160045260246000fd5b60006020828403121561176e57600080fd5b8151801515811461144e57600080fd5b600060a082018783526020878185015260a0604085015281875180845260c086019150828901935060005b818110156117ce5784516001600160a01b0316835293830193918301916001016117a9565b50506001600160a01b03969096166060850152505050608001529392505050565b6000602080838503121561180257600080fd5b825167ffffffffffffffff8082111561181a57600080fd5b818501915085601f83011261182e57600080fd5b81518181111561184057611840611746565b8060051b604051601f19603f8301168101818110858211171561186557611865611746565b60405291825284820192508381018501918883111561188357600080fd5b938501935b828510156118a157845184529385019392850192611888565b98975050505050505050565b600082198211156118c0576118c0611715565b500190565b6000602082840312156118d757600080fd5b5051919050565b60008160001904831182151516156118f8576118f8611715565b500290565b60008261191a57634e487b7160e01b600052601260045260246000fd5b500490565b60008282101561193157611931611715565b500390565b6060815260006119496060830186611675565b6001600160a01b0394851660208401529290931660409091015292915050565b60408152600061197c6040830185611675565b90508260208301529392505050565b6000825161199d818460208701611649565b9190910192915050565b60208152600061144e602083018461167556fea2646970667358221220b7c0c510a6a826713df751b516d4231f1a1cb1e092582e86955519ca2bc98ad264736f6c634300080a0033",
  "devdoc": {
    "kind": "dev",
    "methods": {},
    "version": 1
  },
  "userdoc": {
    "kind": "user",
    "methods": {},
    "version": 1
  },
  "storageLayout": {
    "storage": [
      {
        "astId": 512,
        "contract": "contracts/facets/DCAFacet.sol:DCAFacet",
        "label": "_status",
        "offset": 0,
        "slot": "0",
        "type": "t_uint256"
      },
      {
        "astId": 3215,
        "contract": "contracts/facets/DCAFacet.sol:DCAFacet",
        "label": "feeRate",
        "offset": 0,
        "slot": "1",
        "type": "t_uint256"
      },
      {
        "astId": 3251,
        "contract": "contracts/facets/DCAFacet.sol:DCAFacet",
        "label": "userOrders",
        "offset": 0,
        "slot": "2",
        "type": "t_mapping(t_address,t_array(t_struct(DCAOrder)3193_storage)dyn_storage)"
      }
    ],
    "types": {
      "t_address": {
        "encoding": "inplace",
        "label": "address",
        "numberOfBytes": "20"
      },
      "t_array(t_struct(DCAOrder)3193_storage)dyn_storage": {
        "base": "t_struct(DCAOrder)3193_storage",
        "encoding": "dynamic_array",
        "label": "struct DCAFacet.DCAOrder[]",
        "numberOfBytes": "32"
      },
      "t_mapping(t_address,t_array(t_struct(DCAOrder)3193_storage)dyn_storage)": {
        "encoding": "mapping",
        "key": "t_address",
        "label": "mapping(address => struct DCAFacet.DCAOrder[])",
        "numberOfBytes": "32",
        "value": "t_array(t_struct(DCAOrder)3193_storage)dyn_storage"
      },
      "t_struct(DCAOrder)3193_storage": {
        "encoding": "inplace",
        "label": "struct DCAFacet.DCAOrder",
        "members": [
          {
            "astId": 3178,
            "contract": "contracts/facets/DCAFacet.sol:DCAFacet",
            "label": "fromToken",
            "offset": 0,
            "slot": "0",
            "type": "t_address"
          },
          {
            "astId": 3180,
            "contract": "contracts/facets/DCAFacet.sol:DCAFacet",
            "label": "toToken",
            "offset": 0,
            "slot": "1",
            "type": "t_address"
          },
          {
            "astId": 3182,
            "contract": "contracts/facets/DCAFacet.sol:DCAFacet",
            "label": "totalAmount",
            "offset": 0,
            "slot": "2",
            "type": "t_uint256"
          },
          {
            "astId": 3184,
            "contract": "contracts/facets/DCAFacet.sol:DCAFacet",
            "label": "amountPerInterval",
            "offset": 0,
            "slot": "3",
            "type": "t_uint256"
          },
          {
            "astId": 3186,
            "contract": "contracts/facets/DCAFacet.sol:DCAFacet",
            "label": "interval",
            "offset": 0,
            "slot": "4",
            "type": "t_uint256"
          },
          {
            "astId": 3188,
            "contract": "contracts/facets/DCAFacet.sol:DCAFacet",
            "label": "nextExecutionTime",
            "offset": 0,
            "slot": "5",
            "type": "t_uint256"
          },
          {
            "astId": 3190,
            "contract": "contracts/facets/DCAFacet.sol:DCAFacet",
            "label": "orderCount",
            "offset": 0,
            "slot": "6",
            "type": "t_uint256"
          },
          {
            "astId": 3192,
            "contract": "contracts/facets/DCAFacet.sol:DCAFacet",
            "label": "ordersPlaced",
            "offset": 0,
            "slot": "7",
            "type": "t_uint256"
          }
        ],
        "numberOfBytes": "256"
      },
      "t_uint256": {
        "encoding": "inplace",
        "label": "uint256",
        "numberOfBytes": "32"
      }
    }
  }
}