{
  "address": "0xDaDA0cde73E0a86c6b5aDAff42E9e0D037D2CaCB",
  "abi": [
    {
      "inputs": [],
      "stateMutability": "nonpayable",
      "type": "constructor"
    },
    {
      "anonymous": false,
      "inputs": [
        {
          "indexed": true,
          "internalType": "bytes32",
          "name": "role",
          "type": "bytes32"
        },
        {
          "indexed": true,
          "internalType": "bytes32",
          "name": "previousAdminRole",
          "type": "bytes32"
        },
        {
          "indexed": true,
          "internalType": "bytes32",
          "name": "newAdminRole",
          "type": "bytes32"
        }
      ],
      "name": "RoleAdminChanged",
      "type": "event"
    },
    {
      "anonymous": false,
      "inputs": [
        {
          "indexed": true,
          "internalType": "bytes32",
          "name": "role",
          "type": "bytes32"
        },
        {
          "indexed": true,
          "internalType": "address",
          "name": "account",
          "type": "address"
        },
        {
          "indexed": true,
          "internalType": "address",
          "name": "sender",
          "type": "address"
        }
      ],
      "name": "RoleGranted",
      "type": "event"
    },
    {
      "anonymous": false,
      "inputs": [
        {
          "indexed": true,
          "internalType": "bytes32",
          "name": "role",
          "type": "bytes32"
        },
        {
          "indexed": true,
          "internalType": "address",
          "name": "account",
          "type": "address"
        },
        {
          "indexed": true,
          "internalType": "address",
          "name": "sender",
          "type": "address"
        }
      ],
      "name": "RoleRevoked",
      "type": "event"
    },
    {
      "inputs": [],
      "name": "DEFAULT_ADMIN_ROLE",
      "outputs": [
        {
          "internalType": "bytes32",
          "name": "",
          "type": "bytes32"
        }
      ],
      "stateMutability": "view",
      "type": "function"
    },
    {
      "inputs": [],
      "name": "FEED_MANAGER_ROLE",
      "outputs": [
        {
          "internalType": "bytes32",
          "name": "",
          "type": "bytes32"
        }
      ],
      "stateMutability": "view",
      "type": "function"
    },
    {
      "inputs": [
        {
          "internalType": "address",
          "name": "token",
          "type": "address"
        }
      ],
      "name": "getPriceFeed",
      "outputs": [
        {
          "internalType": "address",
          "name": "",
          "type": "address"
        }
      ],
      "stateMutability": "view",
      "type": "function"
    },
    {
      "inputs": [
        {
          "internalType": "bytes32",
          "name": "role",
          "type": "bytes32"
        }
      ],
      "name": "getRoleAdmin",
      "outputs": [
        {
          "internalType": "bytes32",
          "name": "",
          "type": "bytes32"
        }
      ],
      "stateMutability": "view",
      "type": "function"
    },
    {
      "inputs": [
        {
          "internalType": "bytes32",
          "name": "role",
          "type": "bytes32"
        },
        {
          "internalType": "address",
          "name": "account",
          "type": "address"
        }
      ],
      "name": "grantRole",
      "outputs": [],
      "stateMutability": "nonpayable",
      "type": "function"
    },
    {
      "inputs": [
        {
          "internalType": "bytes32",
          "name": "role",
          "type": "bytes32"
        },
        {
          "internalType": "address",
          "name": "account",
          "type": "address"
        }
      ],
      "name": "hasRole",
      "outputs": [
        {
          "internalType": "bool",
          "name": "",
          "type": "bool"
        }
      ],
      "stateMutability": "view",
      "type": "function"
    },
    {
      "inputs": [
        {
          "internalType": "bytes32",
          "name": "role",
          "type": "bytes32"
        },
        {
          "internalType": "address",
          "name": "account",
          "type": "address"
        }
      ],
      "name": "renounceRole",
      "outputs": [],
      "stateMutability": "nonpayable",
      "type": "function"
    },
    {
      "inputs": [
        {
          "internalType": "bytes32",
          "name": "role",
          "type": "bytes32"
        },
        {
          "internalType": "address",
          "name": "account",
          "type": "address"
        }
      ],
      "name": "revokeRole",
      "outputs": [],
      "stateMutability": "nonpayable",
      "type": "function"
    },
    {
      "inputs": [
        {
          "internalType": "address",
          "name": "token",
          "type": "address"
        },
        {
          "internalType": "address",
          "name": "feed",
          "type": "address"
        }
      ],
      "name": "setPriceFeed",
      "outputs": [],
      "stateMutability": "nonpayable",
      "type": "function"
    },
    {
      "inputs": [
        {
          "internalType": "bytes4",
          "name": "interfaceId",
          "type": "bytes4"
        }
      ],
      "name": "supportsInterface",
      "outputs": [
        {
          "internalType": "bool",
          "name": "",
          "type": "bool"
        }
      ],
      "stateMutability": "view",
      "type": "function"
    },
    {
      "inputs": [
        {
          "internalType": "address",
          "name": "",
          "type": "address"
        }
      ],
      "name": "tokenToPriceFeed",
      "outputs": [
        {
          "internalType": "address",
          "name": "",
          "type": "address"
        }
      ],
      "stateMutability": "view",
      "type": "function"
    }
  ],
  "transactionHash": "0x2b78a797e8b7d8c55ef14b80367aab05a873064cc75f53db5ce49dbecc7e4cf3",
  "args": [],
  "numDeployments": 1,
  "solcInputHash": "0856cb4de98772d511e015621a19e512",
  "bytecode": "0x608060405234801561001057600080fd5b5061001c60003361004b565b6100467f1f187a3be85ee44979bfd72a8c846a33fd33e1d5c865ebc30de98ac743029f653361004b565b6100f7565b6100558282610059565b5050565b6000828152602081815260408083206001600160a01b038516845290915290205460ff16610055576000828152602081815260408083206001600160a01b03851684529091529020805460ff191660011790556100b33390565b6001600160a01b0316816001600160a01b0316837f2f8788117e7eff1d82e926ec794901d17c78024a50270940304540a733656f0d60405160405180910390a45050565b610970806101066000396000f3fe608060405234801561001057600080fd5b50600436106100a95760003560e01c806376e112861161007157806376e112861461015a5780638078f22c1461016d57806391d148541461019657806398e39360146101a9578063a217fddf146101d0578063d547741f146101d857600080fd5b806301ffc9a7146100ae578063248a9ca3146100d65780632f2ff15d1461010757806336568abe1461011c5780635b6cca801461012f575b600080fd5b6100c16100bc366004610702565b6101eb565b60405190151581526020015b60405180910390f35b6100f96100e436600461072c565b60009081526020819052604090206001015490565b6040519081526020016100cd565b61011a610115366004610761565b610222565b005b61011a61012a366004610761565b61024c565b61014261013d36600461078d565b6102cf565b6040516001600160a01b0390911681526020016100cd565b61011a6101683660046107a8565b610357565b61014261017b36600461078d565b6001602052600090815260409020546001600160a01b031681565b6100c16101a4366004610761565b6103b0565b6100f97f1f187a3be85ee44979bfd72a8c846a33fd33e1d5c865ebc30de98ac743029f6581565b6100f9600081565b61011a6101e6366004610761565b6103d9565b60006001600160e01b03198216637965db0b60e01b148061021c57506301ffc9a760e01b6001600160e01b03198316145b92915050565b60008281526020819052604090206001015461023d816103fe565b610247838361040b565b505050565b6001600160a01b03811633146102c15760405162461bcd60e51b815260206004820152602f60248201527f416363657373436f6e74726f6c3a2063616e206f6e6c792072656e6f756e636560448201526e103937b632b9903337b91039b2b63360891b60648201526084015b60405180910390fd5b6102cb828261048f565b5050565b6001600160a01b038181166000908152600160205260408120549091166103385760405162461bcd60e51b815260206004820152601760248201527f4e6f207072696365206665656420617661696c61626c6500000000000000000060448201526064016102b8565b506001600160a01b039081166000908152600160205260409020541690565b7f1f187a3be85ee44979bfd72a8c846a33fd33e1d5c865ebc30de98ac743029f65610381816103fe565b506001600160a01b03918216600090815260016020526040902080546001600160a01b03191691909216179055565b6000918252602082815260408084206001600160a01b0393909316845291905290205460ff1690565b6000828152602081905260409020600101546103f4816103fe565b610247838361048f565b61040881336104f4565b50565b61041582826103b0565b6102cb576000828152602081815260408083206001600160a01b03851684529091529020805460ff1916600117905561044b3390565b6001600160a01b0316816001600160a01b0316837f2f8788117e7eff1d82e926ec794901d17c78024a50270940304540a733656f0d60405160405180910390a45050565b61049982826103b0565b156102cb576000828152602081815260408083206001600160a01b0385168085529252808320805460ff1916905551339285917ff6391f5c32d9c69d2a47ea670b442974b53935d1edc7fd64eb21e047a839171b9190a45050565b6104fe82826103b0565b6102cb5761050b8161054d565b61051683602061055f565b604051602001610527929190610802565b60408051601f198184030181529082905262461bcd60e51b82526102b891600401610877565b606061021c6001600160a01b03831660145b6060600061056e8360026108c0565b6105799060026108df565b67ffffffffffffffff811115610591576105916108f7565b6040519080825280601f01601f1916602001820160405280156105bb576020820181803683370190505b509050600360fc1b816000815181106105d6576105d661090d565b60200101906001600160f81b031916908160001a905350600f60fb1b816001815181106106055761060561090d565b60200101906001600160f81b031916908160001a90535060006106298460026108c0565b6106349060016108df565b90505b60018111156106ac576f181899199a1a9b1b9c1cb0b131b232b360811b85600f16601081106106685761066861090d565b1a60f81b82828151811061067e5761067e61090d565b60200101906001600160f81b031916908160001a90535060049490941c936106a581610923565b9050610637565b5083156106fb5760405162461bcd60e51b815260206004820181905260248201527f537472696e67733a20686578206c656e67746820696e73756666696369656e7460448201526064016102b8565b9392505050565b60006020828403121561071457600080fd5b81356001600160e01b0319811681146106fb57600080fd5b60006020828403121561073e57600080fd5b5035919050565b80356001600160a01b038116811461075c57600080fd5b919050565b6000806040838503121561077457600080fd5b8235915061078460208401610745565b90509250929050565b60006020828403121561079f57600080fd5b6106fb82610745565b600080604083850312156107bb57600080fd5b6107c483610745565b915061078460208401610745565b60005b838110156107ed5781810151838201526020016107d5565b838111156107fc576000848401525b50505050565b7f416363657373436f6e74726f6c3a206163636f756e742000000000000000000081526000835161083a8160178501602088016107d2565b7001034b99036b4b9b9b4b733903937b6329607d1b601791840191820152835161086b8160288401602088016107d2565b01602801949350505050565b60208152600082518060208401526108968160408501602087016107d2565b601f01601f19169190910160400192915050565b634e487b7160e01b600052601160045260246000fd5b60008160001904831182151516156108da576108da6108aa565b500290565b600082198211156108f2576108f26108aa565b500190565b634e487b7160e01b600052604160045260246000fd5b634e487b7160e01b600052603260045260246000fd5b600081610932576109326108aa565b50600019019056fea26469706673582212206b1175b4e76f017aadb6d32564f7cb912dff4ee72545cd87d4f60fd997c17dba64736f6c634300080a0033",
  "devdoc": {
    "kind": "dev",
    "methods": {
      "getRoleAdmin(bytes32)": {
        "details": "Returns the admin role that controls `role`. See {grantRole} and {revokeRole}. To change a role's admin, use {_setRoleAdmin}."
      },
      "grantRole(bytes32,address)": {
        "details": "Grants `role` to `account`. If `account` had not been already granted `role`, emits a {RoleGranted} event. Requirements: - the caller must have ``role``'s admin role. May emit a {RoleGranted} event."
      },
      "hasRole(bytes32,address)": {
        "details": "Returns `true` if `account` has been granted `role`."
      },
      "renounceRole(bytes32,address)": {
        "details": "Revokes `role` from the calling account. Roles are often managed via {grantRole} and {revokeRole}: this function's purpose is to provide a mechanism for accounts to lose their privileges if they are compromised (such as when a trusted device is misplaced). If the calling account had been revoked `role`, emits a {RoleRevoked} event. Requirements: - the caller must be `account`. May emit a {RoleRevoked} event."
      },
      "revokeRole(bytes32,address)": {
        "details": "Revokes `role` from `account`. If `account` had been granted `role`, emits a {RoleRevoked} event. Requirements: - the caller must have ``role``'s admin role. May emit a {RoleRevoked} event."
      },
      "supportsInterface(bytes4)": {
        "details": "See {IERC165-supportsInterface}."
      }
    },
    "version": 1
  },
  "userdoc": {
    "kind": "user",
    "methods": {},
    "version": 1
  },
  "storageLayout": {
    "storage": [
      {
        "astId": 24,
        "contract": "contracts/PriceFeedRegistery.sol:PriceFeedRegistry",
        "label": "_roles",
        "offset": 0,
        "slot": "0",
        "type": "t_mapping(t_bytes32,t_struct(RoleData)19_storage)"
      },
      {
        "astId": 3144,
        "contract": "contracts/PriceFeedRegistery.sol:PriceFeedRegistry",
        "label": "tokenToPriceFeed",
        "offset": 0,
        "slot": "1",
        "type": "t_mapping(t_address,t_address)"
      }
    ],
    "types": {
      "t_address": {
        "encoding": "inplace",
        "label": "address",
        "numberOfBytes": "20"
      },
      "t_bool": {
        "encoding": "inplace",
        "label": "bool",
        "numberOfBytes": "1"
      },
      "t_bytes32": {
        "encoding": "inplace",
        "label": "bytes32",
        "numberOfBytes": "32"
      },
      "t_mapping(t_address,t_address)": {
        "encoding": "mapping",
        "key": "t_address",
        "label": "mapping(address => address)",
        "numberOfBytes": "32",
        "value": "t_address"
      },
      "t_mapping(t_address,t_bool)": {
        "encoding": "mapping",
        "key": "t_address",
        "label": "mapping(address => bool)",
        "numberOfBytes": "32",
        "value": "t_bool"
      },
      "t_mapping(t_bytes32,t_struct(RoleData)19_storage)": {
        "encoding": "mapping",
        "key": "t_bytes32",
        "label": "mapping(bytes32 => struct AccessControl.RoleData)",
        "numberOfBytes": "32",
        "value": "t_struct(RoleData)19_storage"
      },
      "t_struct(RoleData)19_storage": {
        "encoding": "inplace",
        "label": "struct AccessControl.RoleData",
        "members": [
          {
            "astId": 16,
            "contract": "contracts/PriceFeedRegistery.sol:PriceFeedRegistry",
            "label": "members",
            "offset": 0,
            "slot": "0",
            "type": "t_mapping(t_address,t_bool)"
          },
          {
            "astId": 18,
            "contract": "contracts/PriceFeedRegistery.sol:PriceFeedRegistry",
            "label": "adminRole",
            "offset": 0,
            "slot": "1",
            "type": "t_bytes32"
          }
        ],
        "numberOfBytes": "64"
      }
    }
  }
}