{
  "address": "0x85fF2421cb0bdEF9159D85bc5FBB0a2f27Bf274f",
  "abi": [
    {
      "inputs": [
        {
          "internalType": "address",
          "name": "_tokenAddress",
          "type": "address"
        },
        {
          "internalType": "address",
          "name": "_user",
          "type": "address"
        }
      ],
      "name": "getTokenBalance",
      "outputs": [
        {
          "internalType": "uint256",
          "name": "",
          "type": "uint256"
        }
      ],
      "stateMutability": "view",
      "type": "function"
    }
  ],
  "transactionHash": "0xbe8d0dc8cf403839aad8d17f59cd449768f5a80ab543e997db3474733f76b55f",
  "args": [],
  "numDeployments": 1,
  "solcInputHash": "6c423f90d74e7e3c41b98efc60c2de6a",
  "bytecode": "0x608060405234801561001057600080fd5b50610168806100206000396000f3fe608060405234801561001057600080fd5b506004361061002b5760003560e01c8063c489744b14610030575b600080fd5b61004361003e3660046100e6565b610055565b60405190815260200160405180910390f35b6040516370a0823160e01b81526001600160a01b038281166004830152600091908416906370a0823190602401602060405180830381865afa15801561009f573d6000803e3d6000fd5b505050506040513d601f19601f820116820180604052508101906100c39190610119565b9392505050565b80356001600160a01b03811681146100e157600080fd5b919050565b600080604083850312156100f957600080fd5b610102836100ca565b9150610110602084016100ca565b90509250929050565b60006020828403121561012b57600080fd5b505191905056fea2646970667358221220d3c567064ca4aae5d399d8c276dfa228d0d89f497057b6cde8ec6c785de98e9f64736f6c634300080a0033",
  "devdoc": {
    "kind": "dev",
    "methods": {},
    "version": 1
  },
  "userdoc": {
    "kind": "user",
    "methods": {},
    "version": 1
  },
  "storageLayout": {
    "storage": [],
    "types": null
  }
}