{
  "_format": "hh-sol-artifact-1",
  "contractName": "PriceAggregator",
  "sourceName": "contracts/PriceAggregator.sol",
  "abi": [
    {
      "inputs": [
        {
          "internalType": "address",
          "name": "_registry",
          "type": "address"
        }
      ],
      "stateMutability": "nonpayable",
      "type": "constructor"
    },
    {
      "inputs": [
        {
          "internalType": "address",
          "name": "token",
          "type": "address"
        }
      ],
      "name": "getLatestPrice",
      "outputs": [
        {
          "internalType": "int256",
          "name": "",
          "type": "int256"
        }
      ],
      "stateMutability": "view",
      "type": "function"
    },
    {
      "inputs": [],
      "name": "registry",
      "outputs": [
        {
          "internalType": "contract PriceFeedRegistry",
          "name": "",
          "type": "address"
        }
      ],
      "stateMutability": "view",
      "type": "function"
    }
  ],
  "bytecode": "0x608060405234801561001057600080fd5b5060405161030438038061030483398101604081905261002f91610054565b600080546001600160a01b0319166001600160a01b0392909216919091179055610084565b60006020828403121561006657600080fd5b81516001600160a01b038116811461007d57600080fd5b9392505050565b610271806100936000396000f3fe608060405234801561001057600080fd5b50600436106100365760003560e01c806316345f181461003b5780637b10399914610061575b600080fd5b61004e61004936600461018b565b61008c565b6040519081526020015b60405180910390f35b600054610074906001600160a01b031681565b6040516001600160a01b039091168152602001610058565b6000805460405162b6d99560e71b81526001600160a01b03848116600483015283921690635b6cca8090602401602060405180830381865afa1580156100d6573d6000803e3d6000fd5b505050506040513d601f19601f820116820180604052508101906100fa91906101af565b905060008190506000816001600160a01b031663feaf968c6040518163ffffffff1660e01b815260040160a060405180830381865afa158015610141573d6000803e3d6000fd5b505050506040513d601f19601f8201168201806040525081019061016591906101eb565b509198975050505050505050565b6001600160a01b038116811461018857600080fd5b50565b60006020828403121561019d57600080fd5b81356101a881610173565b9392505050565b6000602082840312156101c157600080fd5b81516101a881610173565b805169ffffffffffffffffffff811681146101e657600080fd5b919050565b600080600080600060a0868803121561020357600080fd5b61020c866101cc565b945060208601519350604086015192506060860151915061022f608087016101cc565b9050929550929590935056fea2646970667358221220ae65bff280d6aa29bcfd8d82010ed59213a0d65d5f27eaf8b2236187b4adb42e64736f6c634300080a0033",
  "linkReferences": {},
  "deployedLinkReferences": {}
}